:1000000021C044C043C07EC3B6C24FC3F4C220C3A4
:1000100085C231C23BC0C9C439C091C437C036C0E3
:1000200035C034C033C0F3090000010008002000CF
:1000300040008000000100040000010008004000B2
:100040000001000411241FBECFE5D4E0DEBFCDBF08
:1000500011E0A0E6B0E0EEEDF4E102C005900D92F3
:10006000AC30B107D9F711E0ACE0B1E001C01D92AE
:10007000AD3BB107E1F710E0C8E2D0E003C0229742
:10008000FE0129DAC632D107D1F73CC6B9CFFC014F
:100090007183608353834283178216821582148290
:1000A0000895CF93DF93EC018C819D81892B11F40E
:1000B000E0E017C08E819F81E881F981E80FF91F88
:1000C000E08101969F838E836A817B8186179707E3
:1000D00018F0AED99F838E838C819D8101979D837B
:1000E0008C838E2F9927DF91CF910895FC019B017E
:1000F0008481958168177907A8F486819781860F96
:10010000971F97838683628173818617970718F0FC
:100110008FD99783868384819581821B930B9583E6
:1001200084830895158214820895FC019B018681C1
:10013000978162817381820F931F7AD90190F08138
:10014000E02DE80FF91F808199270895CF93DF9361
:10015000EC01462F2C813D816A817B812617370770
:1001600018F080E090E011C08E819F81820F931F74
:100170005FD9E881F981E80FF91F40838C819D8167
:1001800001969D838C838FEF90E0DF91CF9108954E
:10019000FC0140E050E02481358182819381281761
:1001A000390710F441E050E0CA010895FC011582BE
:1001B00014820895EF92FF920F931F937A018B019F
:1001C00045D3C801B7011AD31F910F91FF90EF904B
:1001D000089582D3089556D3FC0184819927089508
:1001E000FF920F931F93CF93DF93F42EC0E0D0E0E4
:1001F0008B0105C0F80181918F014AD321968F2D83
:100200009927C817D907B4F3DF91CF911F910F91A8
:10021000FF900895039665E070E00AD98827992732
:1002200024E0660F771F881F991F2A95D1F720E0D9
:1002300030E002C02F5F3F4F26173707D8F30895ED
:10024000873040F4E82FFF27EE0FFF1FE45FFE4FDB
:1002500011821082089593B7987F982B93BF0895C9
:1002600010929D0110929E0110929F011092A00188
:1002700008959EB5987F982B9EBD089595B5987F5B
:10028000982B95BD08951092A5011092A601109289
:10029000A7011092A8010895E3B7FF27E770F07057
:1002A000EE0FFF1FE85CFF4F859194910895EEB526
:1002B000FF27E770F070EE0FFF1FE85CFF4F85919E
:1002C00094910895E5B5FF27E770F070EE0FFF1FDA
:1002D000E85DFF4F859194910895873040F4E82FB1
:1002E000FF27EE0FFF1FE45FFE4F718360830895C9
:1002F000DF92EF92FF920F931F937C01D2B6109280
:10030000A1011092A2011092A3011092A401C4DFD6
:100310009C014427552760E074E284EF90E0BED84A
:10032000293B8DE8380786E0480780E0580788F4C5
:1003300081E1E81687E2F80660F4B701882799277B
:1003400058D828EE33E040E050E086D879018A01A1
:100350000EC000271127CA01B90128EE33E040E0A2
:1003600050E07AD8C801B70144D87B018C01809154
:10037000A1019091A201A091A301B091A40122B783
:10038000BA2FA92F982F8827332744275527822B48
:10039000932BA42BB52BA80197012D0D311D411DC9
:1003A000511D82179307A407B50708F31F910F91FA
:1003B000FF90EF90DF90089560919D0170919E01F4
:1003C00080919F019091A00108956091A501709185
:1003D000A6018091A7019091A8010895893031F478
:1003E0008FB582608FBD8FB58E7F0AC08A3019F4B9
:1003F0008FB5826002C08FB58D7F8FBD8FB5816054
:100400008FBD1BBC1ABC19BC18BC08952FB52E7F1C
:100410002FBD2FB522602FBD2EB528602EBD2EB565
:1004200020612EBD97BD86BD1BBC1ABC19BC18BC73
:1004300008958FB58F778FBD8FB58F7B8FBD089552
:100440008FB58F7D8FBD8FB58F7E8FBD08958FB592
:1004500080688FBD8FB58F7B8FBD08958FB580620B
:100460008FBD8FB58F7E8FBD08959BBD8ABD0895CA
:1004700099BD88BD08951F920F920FB60F92112457
:100480002F933F934F935F936F937F938F939F939C
:10049000AF93BF93EF93FF9380919D0190919E0145
:1004A000A0919F01B091A0010196A11DB11D809363
:1004B0009D0190939E01A0939F01B093A001809114
:1004C000A1019091A201A091A301B091A401019674
:1004D000A11DB11D8093A1019093A201A093A3013E
:1004E000B093A40180910C0190910D01892B29F00A
:1004F000E0910C01F0910D010995FF91EF91BF91F1
:10050000AF919F918F917F916F915F914F913F91AB
:100510002F910F900FBE0F901F9018951F920F9262
:100520000FB60F9211242F933F934F935F936F93C6
:100530007F938F939F93AF93BF93EF93FF9380919C
:100540000E0190910F01892B29F0E0910E01F0919D
:100550000F010995FF91EF91BF91AF919F918F91FD
:100560007F916F915F914F913F912F910F900FBEAF
:100570000F901F9018951F920F920FB60F92112493
:100580002F933F934F935F936F937F938F939F939B
:10059000AF93BF93EF93FF938091A5019091A60134
:1005A000A091A701B091A8010196A11DB11D809352
:1005B000A5019093A601A093A701B093A8018091F3
:1005C000160190911701892B29F0E0911601F09105
:1005D00017010995FF91EF91BF91AF919F918F9175
:1005E0007F916F915F914F913F912F910F900FBE2F
:1005F0000F901F9018951F920F920FB60F92112413
:100600002F933F934F935F936F937F938F939F931A
:10061000AF93BF93EF93FF938091100190911101DD
:10062000892B29F0E0911001F09111010995FF91BA
:10063000EF91BF91AF919F918F917F916F915F915A
:100640004F913F912F910F900FBE0F901F901895D3
:100650001F920F920FB60F9211242F933F934F9337
:100660005F936F937F938F939F93AF93BF93EF931A
:10067000FF938091120190911301892B29F0E09151
:100680001201F09113010995FF91EF91BF91AF9184
:100690009F918F917F916F915F914F913F912F919A
:1006A0000F900FBE0F901F9018951F920F920FB6CC
:1006B0000F9211242F933F934F935F936F937F93E8
:1006C0008F939F93AF93BF93EF93FF938091140108
:1006D00090911501892B29F0E0911401F0911501F9
:1006E0000995FF91EF91BF91AF919F918F917F916C
:1006F0006F915F914F913F912F910F900FBE0F908F
:100700001F9018951F920F920FB60F9211242F93DE
:100710003F934F935F936F937F938F939F93AF9389
:10072000BF93EF93FF938091180190911901892B4A
:1007300029F0E0911801F09119010995FF91EF91CD
:10074000BF91AF919F918F917F916F915F914F91E9
:100750003F912F910F900FBE0F901F90189583B768
:10076000887F826083BF12BE89B7816089BF109283
:100770009D0110929E0110929F011092A001089578
:100780008EB5887F83608EBD1DBC1CBC89B784601C
:1007900089BF089585B5887F846085BD14BC89B7FD
:1007A000806489BF1092A5011092A6011092A70142
:1007B0001092A801089580E090E0ECE0F1E0118251
:1007C00010823296019687309105C9F7C8DFD8DFCD
:1007D000E1DF789408958FB58D7F8FBD8FB58E7FC3
:1007E0008FBD8FB58F778FBD8FB58F7B8FBD8FB549
:1007F0008F7D8FBD8FB58F7E8FBD0895F3E0660F1F
:10080000771F881F991FFA95D1F79B01AC01220F22
:10081000331F441F551F60507C4D8B409F4F1CD68B
:100820002150304029B9232F332720BD089540E4BB
:1008300050E06CE571E08AEA91E029DC40E450E0A8
:100840006CE171E083EB91E022DC0895F0DF10921F
:100850001B0110921A0188ED8AB960E875E280E008
:1008600090E0CCDF8FEF8093A9011092B20110923B
:10087000BC011092BB017894089590931B01809362
:100880001A0108958AEA91E0089583EB91E00895B2
:10089000982F8091A9018823E1F39CB91092A901B6
:1008A0000895CF93DF93EC018091AC019091AD015D
:1008B000892B69F08091AE019091AF01892B39F0BD
:1008C0008AEA91E0EEDB88838FEF90E002C080E05F
:1008D00090E0DF91CF910895CF93DF93CDB7DEB74E
:1008E00021970FB6F894DEBF0FBECDBFCE010196A3
:1008F000D8DF882319F48FEF9FEF02C089819927F1
:1009000021960FB6F894DEBF0FBECDBFDF91CF9119
:1009100008951092AF011092AE0108958091AE013A
:100920009091AF01892B19F48FEF90E0089580E04A
:1009300090E00895682F83EB91E008DC08951F9202
:100940000F920FB60F9211242F933F934F935F9303
:100950006F937F938F939F93AF93BF93EF93FF9387
:100960008091B201882369F08091B7019091B8011C
:10097000892B29F083EB91E094DB8CB905C01092B0
:10098000B2018FEF8093A901FF91EF91BF91AF91D9
:100990009F918F917F916F915F914F913F912F9197
:1009A0000F900FBE0F901F9018951F920F920FB6C9
:1009B0000F9211242F933F934F935F936F937F93E5
:1009C0008F939F93AF93BF93EF93FF936CB18091FD
:1009D0001A0190911B01892B39F0E0911A01F091D5
:1009E0001B01862F09950EC08AEA91E0AFDB8823B0
:1009F00049F48091BB019091BC0101969093BC0198
:100A00008093BB01FF91EF91BF91AF919F918F9127
:100A10007F916F915F914F913F912F910F900FBEFA
:100A20000F901F9018958FEF8093B20183EB91E0A8
:100A300038DB982F8091A9018823E1F39CB91092AB
:100A4000A9010895880F991F880F991FE091B4009C
:100A5000F091B500E80FF91F808191810895880F0A
:100A6000991F880F991FE091B400F091B500E80F2D
:100A7000F91F828193810895880F991F880F991F0C
:100A8000E0917A00F0917B00E80FF91F808191815D
:100A90000895880F991F880F991FE0917A00F091AF
:100AA0007B00E80FF91F828193810895880F991FB9
:100AB000880F991FE0916000F0916100E80FF91F25
:100AC00082819381089585B5806285BD85B58F7ECD
:100AD00085BD089585B58F7D85BD85B58F7E85BD26
:100AE000089583BD0895EF92FF920F931F937B01AA
:100AF0008C01ACDEC801B70181DE1F910F91FF9020
:100B0000EF900895C5DE0895BDDEFC0184819581D6
:100B10000895E2DE08950895F5DF08958AE0FCDF88
:100B20000895CF93DF93EC0102C02196F5DF888111
:100B30008823D9F7DF91CF9108952F923F924F925A
:100B40005F926F927F928F929F92AF92BF92CF925D
:100B5000DF92EF92FF920F931F93CF93DF93CDB766
:100B6000DEB7A0970FB6F894DEBF0FBECDBF6B0106
:100B70007C0119012A01611571058105910519F49E
:100B800080E3CADF48C06624772443015E010894ED
:100B9000A11CB11C8501060D171DC701B601A201DC
:100BA00091015AD4F80160830894611C711C811C66
:100BB000911CC701B601A20191014ED469017A01CD
:100BC000211531054105510529F773010894E10804
:100BD000F108EA0CFB1CAA24BB24650110C0F70134
:100BE00080818A3010F4805D01C0895C95DF0894B3
:100BF000A108B108C108D1080894E108F1088827C4
:100C00009927DC0186199709A809B909A816B90618
:100C1000CA06DB0621F7A0960FB6F894DEBF0FBE1A
:100C2000CDBFDF91CF911F910F91FF90EF90DF909B
:100C3000CF90BF90AF909F908F907F906F905F907C
:100C40004F903F902F900895EF92FF920F931F9334
:100C50007B018C0197FF0AC08DE25EDF1095009545
:100C6000F094E094E11CF11C011D111D2AE030E01C
:100C700040E050E0C801B70160DF1F910F91FF9085
:100C8000EF90089520E130E040E050E056DF089515
:100C900028E030E040E050E050DF089522E030E00E
:100CA00040E050E04ADF0895EF92FF920F931F93C8
:100CB00083DB7B018C01F0DA9C0144275527C801B6
:100CC000B70197D3660F771F881F991F2DE730E074
:100CD00040E050E0C1D3CA01B9011F910F91FF90CC
:100CE000EF900895DC01CB0103DB0895019749F0F3
:100CF000880F991F880F991F0297F8940197F1F7B1
:100D000078940895CFE5D4E0DEBFCDBF789427DD99
:100D100037DD88E063DB3EDD85B5877F85BD85B542
:100D2000806485BD3F983E9A329A319A309A379ABC
:100D3000C5D1DED1FECFCF93DF93880F991F880FE7
:100D4000991FA091B400B091B500A80FB91FED9103
:100D5000FC911197309731F1EE0FFF1FED014A81A1
:100D60005B81672B81F4EE5FFE4F0190F081E02DF7
:100D700020A181E090E002C0880F991F4A95E2F718
:100D8000809528230EC0EE5FFE4F0190F081E02D8C
:100D900020A181E090E002C0880F991F4A95E2F7F8
:100DA000282B20A3DF91CF910895CF93DF93880F55
:100DB000991F880F991FA091B400B091B500A80F9A
:100DC000B91FED91FC911197EE0FFF1FE251FF4FFC
:100DD0000190F081E02DED018A819B81A1E0B0E0DE
:100DE000082E02C0AA0FBB1F0A94E2F720E030E0F1
:100DF000672B11F021E030E0B90102C0660F771FC8
:100E00008A95E2F7EF01A09680A199278A239B2378
:100E100086179707C9F720E030E040E050E004C0B3
:100E20002F5F3F4F4F4F5F4F888199278A239B2326
:100E300086179707A9F3CA01B90124E130E040E021
:100E400050E0D7D227E130E040E050E005D3CA01BE
:100E5000B901DF91CF9108950F931F93CF93DF9343
:100E60008B01EC01CC0FDD1FCC0FDD1FE091B40036
:100E7000F091B500EC0FFD1F80819181892B09F461
:100E80005DC0E0917A00F0917B00EC0FFD1F828144
:100E90009381019709F4CDDAE0917A00F0917B001B
:100EA000EC0FFD1F82819381029709F4C9DAE0916A
:100EB0007A00F0917B00EC0FFD1F828193810397F4
:100EC00031F485B58F7D85BD85B58F7E85BDA091BB
:100ED000B400B091B500012BC9F4AC0FBD1FED916A
:100EE000FC911197EE0FFF1FE850FF4F0190F0812A
:100EF000E02D20A181E090E0ED010A8002C0880F82
:100F0000991F0A94E2F78095282317C0AC0FBD1FE4
:100F1000ED91FC911197EE0FFF1FE850FF4F0190EC
:100F2000F081E02D20A181E090E0ED010A8002C077
:100F3000880F991F0A94E2F7282B20A3DF91CF9105
:100F40001F910F910895CF93DF93EC01CC0FDD1F1C
:100F5000CC0FDD1FE091B400F091B500EC0FFD1F48
:100F600080819181892B19F480E090E041C0E0916B
:100F70007A00F0917B00EC0FFD1F82819381019735
:100F800009F457DAE0917A00F0917B00EC0FFD1F35
:100F900082819381029709F453DAE0917A00F0910B
:100FA0007B00EC0FFD1F82819381039731F485B59F
:100FB0008F7D85BD85B58F7E85BDA091B400B09134
:100FC000B500AC0FBD1FED91FC911197EE0FFF1F07
:100FD000E251FF4F0190F081E02D80A19927FD01A2
:100FE000028002C0959587950A94E2F7817090700F
:100FF000DF91CF91089527B1207F880F991F880F27
:10100000991FE0916000F0916100E80FF91F828163
:101010008F70282B27B961E070E080E090E062DEFD
:10102000369A3699FECF24B185B19927982F882713
:101030003327822B932B0895CF93DF939C01EB01F1
:10104000FC01EE0FFF1FEE0FFF1F80917A009091C1
:101050007B00E80FF91F828193818130910541F473
:1010600061E070E0C90167DEF2D9CE01FED923C08C
:101070008230910541F461E070E0C9015CDEEED997
:10108000CE01F6D918C0039761F461E070E0C901A0
:1010900052DE85B5806285BD85B58F7E85BDC3BDB9
:1010A0000AC0603871051CF460E070E002C061E0C5
:1010B00070E0C901D1DEDF91CF91089561E070E069
:1010C0008DE090E038DE40E855E260E070E08CE9C9
:1010D00091E03BD008958DE090E035DF60E070E076
:1010E000892B11F461E070E08DE090E0B5DE0895A9
:1010F000EF92FF920F931F9380E090E07CDF7C01E2
:101100000CE911E061E4C8012DD0B701C801FAD0A3
:10111000C8010FD1E0DF64EF71E080E090E0E2DD34
:101120001F910F91FF90EF900895FC01662311F439
:101130001082089581E080830895FC01662311F4F4
:101140001082089581E080830895FC01808132D867
:101150000895FC0180813FD899270895FC01808182
:1011600038D80895CF93DF93CDB7DEB721970FB668
:10117000F894DEBF0FBECDBFFC01698341E0BE0124
:101180006F5F7F4F80812CD821960FB6F894DEBF19
:101190000FBECDBFDF91CF910895FB0101900020DC
:1011A000E9F73197E61BF70B4E2FFC01808118D829
:1011B0000895CF93DF93CDB7DEB721970FB6F8949C
:1011C000DEBF0FBECDBFFC01698341E0BE016F5F92
:1011D0007F4F808105D821960FB6F894DEBF0FBEF1
:1011E000CDBFDF91CF9108956F927F928F929F92A2
:1011F000AF92BF92CF92DF92EF92FF920F931F9325
:10120000CF93DF93CDB7DEB7A0970FB6F894DEBFCC
:101210000FBECDBF3C017A018B014115510561051F
:10122000710519F460E39EDF37C04E010894811CFC
:10123000911CA22EBB24CC24DD24C801B701A60139
:1012400095010AD1F40161934F01C801B701A601CC
:10125000950102D179018A01211531054105510518
:1012600061F7CE0101968401081B190B0150104053
:101270007C01E00EF11E0EC0F70160816A3010F4AF
:10128000605D01C0695CC3016DDF015010400894CE
:10129000E108F10817FFF0CFA0960FB6F894DEBF73
:1012A0000FBECDBFDF91CF911F910F91FF90EF90B7
:1012B000DF90CF90BF90AF909F908F907F906F9076
:1012C0000895EF92FF920F931F93CF93DF93EC015A
:1012D0007A018B0177FF0AC06DE244DF109500951B
:1012E000F094E094E11CF11C011D111D2AE0B801ED
:1012F000A701CE0179DFDF91CF911F910F91FF9070
:10130000EF900895AB01662757FD6095762FD9DFE2
:1013100008952AE069DF08952115310519F4642F35
:1013200021DF08952A30310511F4CBDF08955CDF09
:1013300008950F931F938C016DE014DF6AE0C801DC
:1013400011DF1F910F9108950F931F938C010ADFF6
:10135000C801EFDF1F910F9108950F931F938C0128
:10136000FB0101900020E9F73197E61BF70B4E2FA8
:10137000FC01808135D7C801DCDF1F910F910895F2
:101380000F931F938C0115DFC801D3DF1F910F91BD
:1013900008950F931F938C0194DFC801CADF1F913A
:1013A0000F910895AB01662757FD6095762FF1DF09
:1013B00008950F931F938C01ACDFC801BADF1F9112
:1013C0000F9108950F931F938C01A6DFC801B1DF21
:1013D0001F910F9108956F5F7F4F21F4019711F4D2
:1013E00010929C0108956FEF7FEF81E090E0F3DFB2
:1013F0000895629FD001739FF001829FE00DF11D5F
:10140000649FE00DF11D929FF00D839FF00D749F7E
:10141000F00D659FF00D9927729FB00DE11DF91F2A
:10142000639FB00DE11DF91FBD01CF011124089587
:10143000AA1BBB1B51E107C0AA1FBB1FA617B707FA
:1014400010F0A61BB70B881F991F5A95A9F7809516
:101450009095BC01CD010895A1E21A2EAA1BBB1BD9
:10146000FD010DC0AA1FBB1FEE1FFF1FA217B30770
:10147000E407F50720F0A21BB30BE40BF50B661F86
:10148000771F881F991F1A9469F76095709580954A
:1014900090959B01AC01BD01CF01089597FB092EEA
:1014A00005260ED057FD04D0D7DF0AD0001C38F433
:1014B00050954095309521953F4F4F4F5F4F089580
:1014C000F6F790958095709561957F4F8F4F9F4F60
:0E14D0000895EE0FFF1F0590F491E02D099492
:1014DE00620003000000030001000300020003008D
:1014EE00030003000400030005007C000000000060
:1014FE0000000000000000000000000000000000DE
:10150E0000000000000000000000000000000000CD
:10151E0002000100020002000200030000000000B1
:10152E0000000000B60004000000040001000400EA
:10153E00020004000300040004000400050004007F
:10154E000600040007000200000002000100020075
:10155E000200020003000200040002000500FFFF6B
:10156E00FFFF160013001000FFFFFFFF180015000D
:0C157E001200FFFFFFFF17001400110017
:00000001FF
