:1000000014C038C037C036C035C034C033C032C069
:1000100031C077C52FC09FC62DC02CC02BC02AC0B1
:1000200029C0F5C127C0AA00F40311241FBECFE5E3
:10003000D4E0DEBFCDBF10E0A0E6B0E0E8E7F6E137
:1000400002C005900D92AE3AB107D9F711E0AEEAC1
:10005000B0E001C01D92A136B107E1F710E0CAE29D
:10006000D0E003C02297FE01CADAC632D107D1F729
:10007000B7D300CBC5CF0895089581E08093B70032
:100080006093B2001092B5001092B600089581E01E
:100090008093B7006093B2001092B5001092B60042
:1000A00008958091B1009091B000891B08959091BE
:1000B000B0008091B100981710F080E00895E091B1
:1000C000AE00F091AF00E90FF11D80819F5F90932A
:1000D000B00008959C018091BA009091BB00892BDB
:1000E00011F19091B0008091B1009817E0F090E08C
:1000F0000BC0E091AE00F091AF00EA0FFB1FA20F22
:10010000B31F8C9180839F5FA92FB0E0A617B7071C
:1001100084F31092B0006093B100E091BA00F091C6
:10012000BB00CB0109950895E091B800F091B900AA
:10013000309729F01092B5001092B60009950895F5
:100140007093BB006093BA0008957093B9006093F8
:10015000B80008950895DF93CF930F92CDB7DEB71F
:1001600069838091B7008823A9F08091B60080321E
:10017000A8F48091B500E091B300F091B400E80FCD
:10018000F11D60838091B5008F5F8093B5008093EF
:10019000B60004C061E0CE010196FED00F90CF9171
:1001A000DF910895D8DF0895EF92FF920F931F9388
:1001B000CF93DF937C01262F042F8091B7008823F3
:1001C00059F0372FE90110E004C06991C701C3DF7E
:1001D0001F5F1017D0F304C0642F822F972FDCD03D
:1001E000DF91CF911F910F91FF90EF900895FB0148
:1001F00001900020E9F73197E61BF70B4E2FD4DF73
:1002000008956091B3007091B40021E04091B60070
:100210008091B2007DD01092B5001092B60010927D
:10022000B7000895862F413208F040E26091AE0099
:100230007091AF0038D01092B0008093B100089553
:10024000F1DF089561E070E080E290E0BFD5809337
:10025000AE009093AF001092B0001092B10061E038
:1002600070E080E290E0B2D58093B3009093B40048
:100270001092B5001092B6002DD208950F931F93DF
:100280008C01862F0DD084E990E0A8D08AE690E01A
:10029000A0D0C801D7DF1F910F910895EFDF089517
:1002A000880F82B90895982F413210F040E02EC097
:1002B0008091BD008823E1F781E08093BD008FEF3E
:1002C0008093CE001092C5004093C600990F9160B4
:1002D0009093BE0085EE86BF8091BD008130E1F332
:1002E0008091C500841710F44091C500A091C3000F
:1002F000B091C40020E030E007C0FB01E20FF31F23
:100300008D9180832F5F3F4F2417B8F3842F08957A
:100310001F93582F122F413210F081E03BC0809183
:10032000BD008823E1F782E08093BD008FEF8093CA
:10033000CE001092C5004093C600A091C300B091BA
:10034000C400FB0102C081918D938E2F861B841700
:10035000D0F3852F90E0880F991F8093BE0085EE23
:1003600086BF112321F08091BD008230E1F380919E
:10037000CE008F3F11F480E00DC08091CE0080321E
:1003800011F482E007C08091CE00803311F084E048
:1003900001C083E01F910895482F613210F081E081
:1003A00008958091BD00843011F082E0089560933B
:1003B000CA00A091C700B091C800842F9C01F90128
:1003C00002C081918D938E2F841B8617D0F380E01D
:1003D00008959093C2008093C10008959093C00047
:1003E0008093BF000895882311F085EC01C085E853
:1003F00086BF089585ED86BF06B604FCFDCF10923A
:10040000BD00089585EC86BF1092BD0008951F922F
:100410000F920FB60F9211246F937F938F939F9338
:10042000EF93FF9381B190E0887F907080369105C3
:1004300009F4D6C081369105CCF58832910509F4CE
:100440007AC089329105B4F48031910509F46FC006
:10045000813191053CF4009709F428C1089709F00F
:100460002EC165C08831910509F465C0809709F0F7
:1004700026C17BC08034910509F49AC0813491056E
:1004800044F48033910509F479C0C89709F017C185
:100490007EC08035910509F47EC08835910509F448
:1004A0008CC08834910509F00AC194C0883991053F
:1004B00009F4F6C089399105ECF48837910509F4FF
:1004C0008FC0893791054CF48836910509F488C0AE
:1004D0008037910509F0F3C083C08838910509F48D
:1004E000DFC08039910509F481C08038910509F099
:1004F000E6C07CC0803B910509F4A5C0813B910515
:100500004CF4803A910509F484C0883A910509F0C9
:10051000D6C099C0803C910509F4C5C0883C9105BE
:1005200009F4C1C0883B910509F0C9C0A4C08091FD
:10053000BE0083B9B3C09091C5008091C6009817E2
:1005400070F49091C500E091C300F091C400E90FF0
:10055000F11D808183B99F5F9093C5009FC085ED99
:1005600086BF06B604FCFDCFA8C080E28093CE0013
:1005700085ED86BF06B604FCFDCF9FC080E3809367
:10058000CE0085ED86BF06B604FCFDCF96C088E39D
:100590008093CE0088C08091C50093B1E091C300E4
:1005A000F091C400E80FF11D90838F5F8093C50028
:1005B0009091C5008091C6006FC08091C50093B135
:1005C000E091C300F091C400E80FF11D90838F5FAC
:1005D0008093C50085ED86BF06B604FCFDCF6DC0D7
:1005E00083E08093BD001092CD0058C08091CD0073
:1005F000803208F055C08091CD0093B1E091CB00DE
:10060000F091CC00E80FF11D90838F5F8093CD00B7
:1006100045C08091CD00803248F48091CD00E091BA
:10062000CB00F091CC00E80FF11D10826091CD005D
:10063000E091C100F091C20070E08091CB009091F8
:10064000CC00099530C084E08093BD001092C900B1
:100650001092CA00E091BF00F091C000099580910E
:10066000CA00882341F481E08093CA00E091C7006A
:10067000F091C80010829091C900E091C700F091FC
:10068000C800E90FF11D808183B99F5F9093C90075
:100690009091C9008091CA00981710F485EC01C0B0
:1006A00085E886BF0CC085EC86BF07C01092CE00DF
:1006B00085ED86BF06B604FCFDCF1092BD00FF910C
:1006C000EF919F918F917F916F910F900FBE0F903F
:1006D0001F9018951092BD00AC9AAD9A0898099891
:1006E00088E480B985E486BF61E070E080E290E054
:1006F0006DD38093C3009093C40061E070E080E20A
:1007000090E064D38093C7009093C80061E070E0EC
:1007100080E290E05BD38093CB009093CC0008956F
:10072000CF92DF92EF92FF920F931F93DF93CF93BD
:10073000CDB7DEB7A8970FB6F894DEBF0FBECDBF1A
:1007400080E7C82E80E0D82E7E010894E11CF11CC1
:1007500060E670E08FEC90E0A9D044E050E069E4FE
:1007600070E08CEB90E06CDD1CC08CEB90E09FDCCB
:10077000082F10E0B8018FEC90E099D11F930F93F0
:10078000DF92CF92FF92EF9244D4B7018FEC90E0CA
:100790008DD08DB79EB706960FB6F8949EBF0FBE4C
:1007A0008DBF8CEB90E07DDC8823F9F668EE73E07A
:1007B00080E090E011D2CCCF0F931F938CEB90E0B0
:1007C00041DD0FEC10E040E855E260E070E0C80168
:1007D0001BD069E870E0C80169D01F910F9108959E
:1007E00033D2EADF9DDFFECF85EA90E09093D00020
:1007F0008093CF000895862F73D20895A3D20895D1
:1008000083D2089571D20895CB01BA013CD20895E4
:10081000DC01ED91FC910190F081E02D09950895A6
:10082000DC01ED91FC910190F081E02D0995089596
:100830000F931F93CF93DF938C01EB0109C0219697
:10084000D801ED91FC910190F081E02DC80109954E
:1008500068816623A1F7DF91CF911F910F910895D1
:100860000F931F938C01DC01ED91FC910190F081BD
:10087000E02D6DE00995D801ED91FC910190F0819A
:10088000E02D6AE0C80109951F910F9108950F931B
:100890001F938C01DC01ED91FC910190F081E02D22
:1008A0000995C801DDDF1F910F9108950F931F93E4
:1008B0008C01BEDFC801D4DF1F910F9108950F9303
:1008C0001F938C01DC01ED91FC910190F081E02DF2
:1008D0000995C801C5DF1F910F9108952F923F928E
:1008E0004F925F926F927F928F929F92AF92BF9240
:1008F000CF92DF92EF92FF920F931F93DF93CF93EC
:10090000CDB7DEB7A0970FB6F894DEBF0FBECDBF50
:100910001C016A017B01411551056105710549F40E
:10092000DC01ED91FC910190F081E02D60E30995EF
:1009300052C0882499245401422E552466247724D9
:1009400001E010E00C0F1D1F080D191DC701B601B5
:10095000A301920101D6F80160830894811C911CC7
:10096000A11CB11CC701B601A3019201F5D5C901B3
:10097000DA016C017D01C114D104E104F10401F735
:1009800081E0E82EF12CEC0EFD1EE80CF91C3E0176
:100990000894611C711CD501C4010197A109B1091A
:1009A0006C01C818D90814C0F601EE0DFF1D608156
:1009B0006A3010F4605D01C0695CD101ED91FC9179
:1009C0000190F081E02DC10109950894E108F1083A
:1009D0006E147F0449F7A0960FB6F894DEBF0FBEE1
:1009E000CDBFCF91DF911F910F91FF90EF90DF90DE
:1009F000CF90BF90AF909F908F907F906F905F90BF
:100A00004F903F902F9008952AE068DF08950F934C
:100A10001F938C01F9DFC80123DF1F910F91089507
:100A2000AB0160E070E0F0DF08950F931F938C013D
:100A3000AB0160E070E0E8DFC80112DF1F910F91A9
:100A40000895EF92FF920F931F93CF93DF93EC01E2
:100A50007A018B0177FF0FC0E881F9810190F08165
:100A6000E02D6DE2099510950095F094E094E11C5D
:100A7000F11C011D111D2AE0B801A701CE012EDFD6
:100A8000DF91CF911F910F91FF90EF9008950F93F9
:100A90001F938C01D6DFC801E3DE1F910F910895EB
:100AA000AB01662757FD6095762FCBDF08950F9336
:100AB0001F938C01AB01662757FD6095762FC1DF30
:100AC000C801CEDE1F910F910895DC01211531057B
:100AD00041F4ED91FC910190F081E02D642F099596
:100AE00008952A30310511F4ACDF0895F7DE08953A
:100AF0000F931F938C01E9DFC801B2DE1F910F91A4
:100B000008951F920F920FB60F9211242F938F9377
:100B10009F93AF93BF938091D1009091D200A09109
:100B2000D300B091D4008050904CAF4FBF4F809312
:100B3000D1009093D200A093D300B093D40027C0EB
:100B40008091D1009091D200A091D300B091D400B7
:100B500080589E43A040B0408093D1009093D20033
:100B6000A093D300B093D4008091D5009091D6008B
:100B7000A091D700B091D8000196A11DB11D80931E
:100B8000D5009093D600A093D700B093D800809161
:100B9000D1009091D200A091D300B091D40081589F
:100BA0009E43A040B04060F6BF91AF919F918F915E
:100BB0002F910F900FBE0F901F9018958FB7F8943C
:100BC0002091D5003091D6004091D7005091D800A7
:100BD0008FBFB901CA010895EF92FF920F931F933F
:100BE0007B018C018FB7F8944091D5005091D600CD
:100BF0006091D7007091D8008FBF2FB7F894809183
:100C0000D5009091D600A091D700B091D8002FBF09
:100C1000841B950BA60BB70B8E159F05A007B1077C
:100C200060F31F910F91FF90EF900895019759F095
:100C3000FC01EE0FFF1FEE0FFF1F32978FB7F894E6
:100C40003197F1F78FBF0895789483B7826083BF9F
:100C500083B7816083BF89B7816089BF8EB58260A9
:100C60008EBD8EB581608EBD8FB581608FBD85B51F
:100C7000846085BD85B5806485BD329A319A309A8D
:100C8000379A1AB80895EF92FF920F931F937B0142
:100C90008C0122E030E040E050E080D4205C3D4B0D
:100CA000404F5F4FCA01B901A801970177D4C9012C
:100CB000DA010197A109B109292F3A2F4B2F5527A6
:100CC00047FD5A950196A11DB11D20BD815089B9DE
:100CD000549A539A579A1F910F91FF90EF9008954D
:100CE0005D9BFECF8CB908958091D9009091DA0078
:100CF00080589F4F2091DB003091DC00821B930BCA
:100D000060E870E016D408954091DB005091DC005B
:100D10008091D9009091DA008417950719F42FEF8C
:100D20003FEF0EC0FA01E352FF4F2081CA01019646
:100D300060E870E0FED39093DC008093DB0030E04D
:100D4000C90108958091DB009091DC009093DA0056
:100D50008093D90008951F920F920FB60F9211241D
:100D60002F933F934F935F936F937F938F939F93B3
:100D7000AF93BF93EF93FF934CB1E091D900F09103
:100D8000DA00CF01019660E870E0D3D39C01809136
:100D9000DB009091DC002817390739F0E352FF4F50
:100DA00040833093DA002093D900FF91EF91BF91F7
:100DB000AF919F918F917F916F915F914F913F91F3
:100DC0002F910F900FBE0F901F9018950F931F93A8
:100DD000CF93DF93689F8001699F100D789F100D5E
:100DE0001124C8010DD0EC01009721F0A80160E0AA
:100DF00070E008D1CE01DF91CF911F910F9108953E
:100E0000CF93DF93BC018230910510F462E070E073
:100E1000A0915F01B0916001ED01E0E0F0E040E001
:100E200050E021C0888199818617970769F48A81EB
:100E30009B81309719F09383828304C09093600163
:100E400080935F01FE0134C06817790738F44115BB
:100E5000510519F08417950708F4AC01FE018A8149
:100E60009B819C01E9012097E9F641155105A9F103
:100E7000CA01861B970B049708F4BA01E0E0F0E082
:100E80002AC08D919C91119784179507F9F46417E6
:100E9000750781F412968D919C911397309719F0F4
:100EA0009383828304C09093600180935F01FD016E
:100EB00032964CC0CA01861B970BFD01E80FF91F43
:100EC0006193719302978D939C9340C0FD01828141
:100ED00093819C01D9011097A1F680915D019091B9
:100EE0005E01892B41F48091A9009091AA00909312
:100EF0005E0180935D014091AB005091AC004115C3
:100F0000510541F44DB75EB78091A7009091A800BC
:100F1000481B590B20915D0130915E01CA01821B73
:100F2000930B8617970780F0AB014E5F5F4F8417D6
:100F3000950750F0420F531F50935E0140935D019F
:100F4000F9016193719302C0E0E0F0E0CF01DF911D
:100F5000CF910895CF93DF93009709F450C0EC012F
:100F600022971B821A82A0915F01B09160011097B5
:100F700009F140E050E0AC17BD0708F1BB83AA833C
:100F8000FE0121913191E20FF31FAE17BF0779F4F3
:100F90008D919C911197280F391F2E5F3F4F3983F8
:100FA000288312968D919C9113979B838A83411578
:100FB000510571F4D0936001C0935F0120C0129677
:100FC0008D919C911397AD01009711F0DC01D3CF67
:100FD000FA01D383C28321913191E20FF31FCE171F
:100FE000DF0769F488819981280F391F2E5F3F4FF1
:100FF000FA01318320838A819B8193838283DF91ED
:10100000CF910895DC0101C06D9341505040E0F74D
:101010000895AEE0B0E0EEE0F8E003C30D891E896C
:1010200086E08C831A8309838FEF9FE79E838D83ED
:10103000CE014996AC016F89788DCE01019609D019
:101040002F813885020F131FF80110822E96E4E0DD
:1010500004C3ABE0B0E0EEE2F8E0D5C23C012B0106
:101060005A01FC0117821682838181FD03C06FEF54
:101070007FEFBBC19AE0892E1E010894211C311C10
:10108000F3012381F20123FD859123FF81912F013B
:10109000882309F4A7C1853239F423FD859123FF04
:1010A00081912F01853221F4B30190E0B8D1E8CFCE
:1010B000982FDD24CC249924FFE1FD15D0F09B323C
:1010C00069F09C3228F4903259F0933291F40EC0BA
:1010D0009D3249F0903369F441E024C052E0D52AB2
:1010E00084E0D82A28C098E0D92A25C0E0E1DE2A89
:1010F00022C0D7FC29C0892F80538A3070F4D6FED5
:1011000005C0989C902C1124980E15C0C89CC02C2A
:101110001124C80EF0E2DF2A0EC09E3229F4D6FC5C
:1011200061C140E4D42A07C09C3619F450E8D52A9E
:1011300002C0983649F4F20123FD959123FF919165
:101140002F01992309F0B8CF892F8554833018F0E7
:101150008052833038F444E050E0A40EB51E5FE3C3
:1011600059830FC0933631F0933779F0933509F0F6
:1011700052C01FC0F5018081898342E050E0A40E77
:10118000B51E710101E010E011C0F501E080F180B1
:10119000D6FC03C06FEF7FEF02C0692D70E042E024
:1011A00050E0A40EB51EC7012FD18C015FE7D522F8
:1011B00013C0F501E080F180D6FC03C06FEF7FEF34
:1011C00002C0692D70E042E050E0A40EB51EC701D8
:1011D00010D18C0150E8D52AD3FE06C018C0B30147
:1011E00080E290E01CD1CA948C2D90E0081719077A
:1011F000B0F30DC0F701D7FC8591D7FE81917F0137
:10120000B30190E00CD1C110CA94015010400115F7
:10121000110581F7E4C0943611F0993669F5D7FECF
:1012200008C0F501E080F1800281138144E050E0C4
:101230000AC0F501808191817C010027F7FC0095AF
:10124000102F42E050E0A40EB51E5FE6D52217FF36
:101250000AC010950095F094E094E11CF11C011D6A
:10126000111D80E8D82A2AE030E0A101C801B701A9
:1012700002D1F82EF2183FC0953729F41D2D1F7E9C
:101280002AE030E01DC01D2D197F9F3661F0903798
:1012900020F4983509F0A6C00FC0903739F0983780
:1012A00009F0A0C004C028E030E00AC0106114FDBD
:1012B000146020E130E004C014FD166020E132E04B
:1012C00017FF08C0F501608171818281938144E03C
:1012D00050E008C0F50180819181BC0180E090E080
:1012E00042E050E0A40EB51EA101C5D0F82EF218C0
:1012F0008FE7D82ED122D6FE0BC05EEFD522F9148F
:1013000038F4D4FE07C0D2FC05C08FEED82202C04C
:101310001F2D01C0192DD4FE0DC0FE01EF0DF11DD2
:101320008081803319F499EED92208C01F5FD2FE64
:1013300005C003C08D2D867809F01F5F0D2DD3FCED
:1013400013C0D0FE0EC01C1510F09F2C0AC09F2C9D
:101350009C0C911A1C2D05C0B30180E290E05FD077
:101360001F5F1C15C8F304C01C1510F4C11A01C07E
:10137000CC2404FF0FC0B30180E390E050D002FF03
:101380001CC001FD03C088E790E002C088E590E042
:10139000B3010CC0802F867881F001FF02C08BE280
:1013A00001C080E2D7FC8DE2B30190E038D005C0E7
:1013B000B30180E390E033D09A94F914C8F3FA941F
:1013C000F101EF0DF11DB301808190E028D0FF20E5
:1013D000B1F705C0B30180E290E021D0CA94CC20DF
:1013E000C9F74ECEF30166817781CB012B96E2E1FE
:1013F00026C1FC010590615070400110D8F780951E
:1014000090958E0F9F1F0895FC01615070400190D0
:101410000110D8F7809590958E0F9F1F08950F9318
:101420001F93CF93DF938C01EB018B8181FF1BC056
:1014300082FF0DC02E813F818C819D812817390745
:1014400064F4E881F9810193F983E88306C0E885B3
:10145000F985802F0995892B31F48E819F81019622
:101460009F838E8302C00FEF1FEFC801DF91CF91E2
:101470001F910F910895FA01AA27283051F12031C8
:1014800081F1E8946F936E7F6E5F7F4F8F4F9F4F18
:10149000AF4FB1E03ED0B4E03CD0670F781F891F5A
:1014A0009A1FA11D680F791F8A1F911DA11D6A0F28
:1014B000711D811D911DA11D20D009F468943F91DB
:1014C0002AE0269F11243019305D3193DEF6CF01DA
:1014D0000895462F4770405D4193B3E00FD0C9F7A0
:1014E000F6CF462F4F70405D4A3318F0495D31FD0D
:1014F0004052419302D0A9F7EACFB4E0A695979560
:10150000879577956795BA95C9F700976105710535
:1015100008959B01AC010A2E06945795479537957F
:101520002795BA95C9F7620F731F841F951FA01DD9
:10153000089597FB092E07260AD077FD04D049D0DD
:1015400006D000201AF4709561957F4F0895F6F744
:10155000909581959F4F0895A1E21A2EAA1BBB1B5F
:10156000FD010DC0AA1FBB1FEE1FFF1FA217B3076F
:10157000E407F50720F0A21BB30BE40BF50B661F85
:10158000771F881F991F1A9469F760957095809549
:1015900090959B01AC01BD01CF01089597FB092EE9
:1015A00005260ED057FD04D0D7DF0AD0001C38F432
:1015B00050954095309521953F4F4F4F5F4F08957F
:1015C000F6F790958095709561957F4F8F4F9F4F5F
:1015D0000895AA1BBB1B51E107C0AA1FBB1FA6177A
:1015E000B70710F0A61BB70B881F991F5A95A9F7CC
:1015F00080959095BC01CD010895EE0FFF1F0590D9
:10160000F491E02D09942F923F924F925F926F9246
:101610007F928F929F92AF92BF92CF92DF92EF9282
:10162000FF920F931F93CF93DF93CDB7DEB7CA1B03
:10163000DB0B0FB6F894DEBF0FBECDBF09942A882E
:10164000398848885F846E847D848C849B84AA84D6
:10165000B984C884DF80EE80FD800C811B81AA8163
:10166000B981CE0FD11D0FB6F894DEBF0FBECDBF2E
:08167000ED010895F894FFCF8D
:1016780053656E64696E6720726571756573740071
:1016880052656365697665642030782578206672CE
:101698006F6D20736C61766500493243204D61732C
:1016A80074657220696E697469616C697A65642E03
:0E16B8000000000000FB0320006101000000A4
:00000001FF
