:1000000039C05DC05CC05BC05AC059C058C057C041
:1000100056C01FC254C0D0C352C051C050C04FC000
:100020004EC04DC04CC0000037343100003835326E
:100030000000363330040404040404040402020201
:100040000202020303030303030102040810204019
:1000500080010204081020010204081020000000A2
:100060000000000000000304050000000000000084
:1000700000009C0011241FBECFE5D4E0DEBFCDBF41
:1000800010E0A0E6B0E0E6E0F9E002C005900D92D5
:10009000AE37B107D9F711E0AEE7B0E001C01D926D
:1000A000AE30B107E1F710E0C4E7D0E003C022971B
:1000B000FE0123D4C237D107D1F73AD022C4A0CF52
:1000C00060E670E080E890E05BD060917E00709127
:1000D0007F0080E890E093D180917E0090917F0036
:1000E000019690937F0080937E008DE0C7D2892B8C
:1000F00011F461E001C060E08DE08BD268EE73E046
:1001000080E090E011D208950F931F9300E810E073
:1001100040E855E260E070E0C8011ED069E670E09A
:10012000C8016CD061E08DE056D21F910F91089507
:1001300033D2EADFC5DFFECF8CE790E090938100F9
:10014000809380000895862FFCD208952CD30895C3
:100150000CD30895FAD20895CB01BA01C5D20895FF
:10016000DC01ED91FC910190F081E02D099508955D
:10017000DC01ED91FC910190F081E02D099508954D
:100180000F931F93CF93DF938C01EB0109C021964E
:10019000D801ED91FC910190F081E02DC801099505
:1001A00068816623A1F7DF91CF911F910F91089588
:1001B0000F931F938C01DC01ED91FC910190F08174
:1001C000E02D6DE00995D801ED91FC910190F08151
:1001D000E02D6AE0C80109951F910F9108950F93D2
:1001E0001F938C01DC01ED91FC910190F081E02DD9
:1001F0000995C801DDDF1F910F9108950F931F939B
:100200008C01BEDFC801D4DF1F910F9108950F93B9
:100210001F938C01DC01ED91FC910190F081E02DA8
:100220000995C801C5DF1F910F9108952F923F9244
:100230004F925F926F927F928F929F92AF92BF92F6
:10024000CF92DF92EF92FF920F931F93DF93CF93A2
:10025000CDB7DEB7A0970FB6F894DEBF0FBECDBF07
:100260001C016A017B01411551056105710549F4C5
:10027000DC01ED91FC910190F081E02D60E30995A6
:1002800052C0882499245401422E55246624772490
:1002900001E010E00C0F1D1F080D191DC701B6016C
:1002A000A3019201D7D2F80160830894811C911CAC
:1002B000A11CB11CC701B601A3019201CBD2C90197
:1002C000DA016C017D01C114D104E104F10401F7EC
:1002D00081E0E82EF12CEC0EFD1EE80CF91C3E012D
:1002E0000894611C711CD501C4010197A109B109D1
:1002F0006C01C818D90814C0F601EE0DFF1D60810D
:100300006A3010F4605D01C0695CD101ED91FC912F
:100310000190F081E02DC10109950894E108F108F0
:100320006E147F0449F7A0960FB6F894DEBF0FBE97
:10033000CDBFCF91DF911F910F91FF90EF90DF9094
:10034000CF90BF90AF909F908F907F906F905F9075
:100350004F903F902F9008952AE068DF08950F9303
:100360001F938C01F9DFC80123DF1F910F910895BE
:10037000AB0160E070E0F0DF08950F931F938C01F4
:10038000AB0160E070E0E8DFC80112DF1F910F9160
:100390000895EF92FF920F931F93CF93DF93EC0199
:1003A0007A018B0177FF0FC0E881F9810190F0811C
:1003B000E02D6DE2099510950095F094E094E11C14
:1003C000F11C011D111D2AE0B801A701CE012EDF8D
:1003D000DF91CF911F910F91FF90EF9008950F93B0
:1003E0001F938C01D6DFC801E3DE1F910F910895A2
:1003F000AB01662757FD6095762FCBDF08950F93ED
:100400001F938C01AB01662757FD6095762FC1DFE6
:10041000C801CEDE1F910F910895DC012115310531
:1004200041F4ED91FC910190F081E02D642F09954C
:1004300008952A30310511F4ACDF0895F7DE0895F0
:100440000F931F938C01E9DFC801B2DE1F910F915A
:1004500008951F920F920FB60F9211242F938F932E
:100460009F93AF93BF938091820090918300A0915E
:100470008400B09185008050904CAF4FBF4F809367
:10048000820090938300A0938400B093850027C0DE
:100490008091820090918300A0918400B0918500AA
:1004A00080589E43A040B040809382009093830088
:1004B000A0938400B093850080918600909187007E
:1004C000A0918800B09189000196A11DB11D809373
:1004D000860090938700A0938800B0938900809154
:1004E000820090918300A0918400B0918500815892
:1004F0009E43A040B04060F6BF91AF919F918F9115
:100500002F910F900FBE0F901F9018958FB7F894F2
:100510002091860030918700409188005091890099
:100520008FBFB901CA010895EF92FF920F931F93F5
:100530007B018C018FB7F894409186005091870021
:1005400060918800709189008FBF2FB7F8948091D7
:10055000860090918700A0918800B09189002FBFFC
:10056000841B950BA60BB70B8E159F05A007B10733
:1005700060F31F910F91FF90EF900895019759F04C
:10058000FC01EE0FFF1FEE0FFF1F32978FB7F8949D
:100590003197F1F78FBF0895789483B7826083BF56
:1005A00083B7816083BF89B7816089BF8EB5826060
:1005B0008EBD8EB581608EBD8FB581608FBD85B5D6
:1005C000846085BD85B5806485BD329A319A309A44
:1005D000379A1AB80895282F30E0C901875B9F4FDA
:1005E000FC0194912B5C3F4FF9018491882381F0A9
:1005F000E82FF0E0EA5DFF4FE491F0E0662329F494
:10060000808190958923808308958081892B8083C0
:100610000895482F50E0CA01835A9F4FFC0124914E
:10062000CA01875B9F4FFC0194914B5C5F4FFA01BD
:100630003491332311F1222381F0233019F48FB543
:100640008F7704C0243021F48FB58F7D8FBD05C016
:10065000253019F485B58F7D85BDE32FF0E0E55D8C
:10066000FF4FE491F0E0662329F48081909589237F
:10067000808308958081892B80830895482F50E0DE
:10068000CA01835A9F4FFC012491CA01875B9F4F87
:10069000FC0194914B5C5F4FFA013491332319F4C0
:1006A00020E030E01FC0222381F0233019F48FB501
:1006B0008F7704C0243021F48FB58F7D8FBD05C0A6
:1006C000253019F485B58F7D85BDE32FF0E0E05D21
:1006D000FF4FE491F0E0808120E030E0892311F0C9
:1006E00021E030E0C9010895EF92FF920F931F932C
:1006F0007B018C0122E030E040E050E0CDD0205C76
:100700003D4B404F5F4FCA01B901A8019701C4D0CA
:10071000C901DA010197A109B109292F3A2F4B2FFD
:10072000552747FD5A950196A11DB11D20BD815049
:1007300089B9549A539A579A1F910F91FF90EF904D
:1007400008955D9BFECF8CB9089580918A009091A9
:100750008B0080589F4F20918C0030918D00821B20
:10076000930B60E870E063D0089540918C00509145
:100770008D0080918A0090918B008417950719F461
:100780002FEF3FEF0EC0FA01E257FF4F2081CA0161
:10079000019660E870E04BD090938D0080938C00C0
:1007A00030E0C901089580918C0090918D00909364
:1007B0008B0080938A0008951F920F920FB60F92BC
:1007C00011242F933F934F935F936F937F938F9356
:1007D0009F93AF93BF93EF93FF934CB1E0918A0047
:1007E000F0918B00CF01019660E870E020D09C0171
:1007F00080918C0090918D002817390739F0E257CD
:10080000FF4F408330938B0020938A00FF91EF913C
:10081000BF91AF919F918F917F916F915F914F9118
:100820003F912F910F900FBE0F901F90189597FB3F
:10083000092E07260AD077FD04D049D006D0002023
:100840001AF4709561957F4F0895F6F7909581950C
:100850009F4F0895A1E21A2EAA1BBB1BFD010DC0DC
:10086000AA1FBB1FEE1FFF1FA217B307E407F50760
:1008700020F0A21BB30BE40BF50B661F771F881F3C
:10088000991F1A9469F760957095809590959B01D2
:10089000AC01BD01CF01089597FB092E05260ED0AE
:1008A00057FD04D0D7DF0AD0001C38F4509540958E
:1008B000309521953F4F4F4F5F4F0895F6F7909534
:1008C0008095709561957F4F8F4F9F4F0895AA1B1C
:1008D000BB1B51E107C0AA1FBB1FA617B70710F02B
:1008E000A61BB70B881F991F5A95A9F7809590955D
:1008F000BC01CD010895EE0FFF1F0590F491E02D8E
:060900000994F894FFCFFA
:10090600636F756E74203D2000496E697469616C71
:0E091600697A65642E2E2E0000000000A300FA
:00000001FF
