:1000000039C05DC05CC05BC05AC059C058C057C041
:1000100056C046C354C03EC552C051C050C04FC068
:100020004EC04DC04CC0000037343100003835326E
:100030000000363330040404040404040402020201
:100040000202020303030303030102040810204019
:1000500080010204081020010204081020000000A2
:100060000000000000000304050000000000000084
:100070000000C30111241FBECFE5D4E0DEBFCDBF19
:1000800010E0A0E6B0E0E4E3F0E102C005900D92DC
:10009000A438B107D9F711E0A4E8B0E001C01D927F
:1000A000A233B107E1F710E0C4E7D0E003C0229724
:1000B000FE01BAD7C237D107D1F761D1B9C7A0CFF6
:1000C0000F931F930091A2001091A300000F111F26
:1000D0000C571F4F2091A0003091A100F8014081E2
:1000E0005181241B350B3093A1002093A0009DD398
:1000F000F801918380832091A2003091A300F9013F
:10010000EE0FFF1FEC57FF4F0190F081E02D809123
:10011000A0009091A100E80FF91FF093A100E093D7
:10012000A0002F5F3F4F3093A3002093A200263002
:10013000310524F01092A3001092A200CF0166E0D6
:1001400070E00CD7CB011F910F9108956F927F92B1
:100150008F929F92AF92BF92CF92DF92EF92FF92D7
:100160000F931F93DF93CF93CDB7DEB72F970FB6C3
:10017000F894DEBF0FBECDBF3B014C01CDD5DC01F5
:10018000CB017C011E821F8218861986DE011A9619
:1001900026E0FD0111922A95E9F74AE050E05E0160
:1001A0000894A11CB11CB501BBD426E0C22ED12CF1
:1001B000CC0EDD1EB501C601A8D460E670E0C60114
:1001C000A4D40027F7FC0095102FC801B701D7D59C
:1001D0009B01AC01C401B301D2D420E030E048EC73
:1001E00052E459D699D5DC01CB014AE050E0B50183
:1001F00097D4B501C60189D4C6012F960FB6F894DD
:10020000DEBF0FBECDBFCF91DF911F910F91FF9049
:10021000EF90DF90CF90BF90AF909F908F907F90A6
:100220006F900895CF92DF92EF92FF920F931F93FA
:10023000809190009091910043DF90939300809380
:10024000920034EAC32E30E0D32E62E670E0C6019D
:10025000BED06091920070919300882777FD8095C1
:10026000982F8DD520E030E040E85AE314D620E006
:1002700030E44CE955E40FD660939C0070939D00E8
:1002800080939E0090939F0020E030E046E154E48C
:1002900076D420E030E040E251E4D6D47B018C01FA
:1002A00060939400709395008093960090939700CC
:1002B00020E030E040E151E4EED520E030E040EADB
:1002C00050E4C2D420E030E040E052E459D46093DE
:1002D00098007093990080939A0090939B00C801B6
:1002E000B70134DFBC01C60172D06AE670E0C60116
:1002F0006ED0609198007091990080919A009091D1
:100300009B0024DFBC01C601A0D068EE73E080E052
:1003100090E031D21F910F91FF90EF90DF90CF903E
:1003200008950F931F9310928500109284001092ED
:100330008700109286001092890010928800109217
:100340008B0010928A0010928D0010928C001092F7
:100350008F0010928E0004EA10E040E855E260E061
:1003600070E0C80120D06CE670E0C8016ED064E691
:1003700070E080E090E0FFD11F910F91089533D29B
:10038000D0DF50DFFECF80E890E09093A50080930F
:10039000A4000895862F43D3089573D3089553D3AB
:1003A000089541D30895CB01BA010CD30895DC011F
:1003B000ED91FC910190F081E02D09950895DC010B
:1003C000ED91FC910190F081E02D099508950F9336
:1003D0001F93CF93DF938C01EB0109C02196D801C5
:1003E000ED91FC910190F081E02DC80109956881A3
:1003F0006623A1F7DF91CF911F910F9108950F937D
:100400001F938C01DC01ED91FC910190F081E02DB6
:100410006DE00995D801ED91FC910190F081E02DFE
:100420006AE0C80109951F910F9108950F931F93DA
:100430008C01DC01ED91FC910190F081E02D09959A
:10044000C801DDDF1F910F9108950F931F938C0159
:10045000BEDFC801D4DF1F910F9108950F931F9342
:100460008C01DC01ED91FC910190F081E02D09956A
:10047000C801C5DF1F910F9108952F923F924F92AF
:100480005F926F927F928F929F92AF92BF92CF9224
:10049000DF92EF92FF920F931F93DF93CF93CDB72D
:1004A000DEB7A0970FB6F894DEBF0FBECDBF1C011C
:1004B0006A017B01411551056105710549F4DC01B3
:1004C000ED91FC910190F081E02D60E3099552C01F
:1004D000882499245401422E55246624772401E06F
:1004E00010E00C0F1D1F080D191DC701B601A30157
:1004F000920147D5F80160830894811C911CA11CCE
:10050000B11CC701B601A30192013BD5C901DA01B3
:100510006C017D01C114D104E104F10401F781E013
:10052000E82EF12CEC0EFD1EE80CF91C3E0108949F
:10053000611C711CD501C4010197A109B1096C01AD
:10054000C818D90814C0F601EE0DFF1D60816A308D
:1005500010F4605D01C0695CD101ED91FC910190E6
:10056000F081E02DC10109950894E108F1086E14AD
:100570007F0449F7A0960FB6F894DEBF0FBECDBF3B
:10058000CF91DF911F910F91FF90EF90DF90CF906F
:10059000BF90AF909F908F907F906F905F904F90A3
:1005A0003F902F9008952AE068DF08950F931F93DE
:1005B0008C01F9DFC80123DF1F910F910895AB0172
:1005C00060E070E0F0DF08950F931F938C01AB01A2
:1005D00060E070E0E8DFC80112DF1F910F9108951D
:1005E000EF92FF920F931F93CF93DF93EC017A0169
:1005F0008B0177FF0FC0E881F9810190F081E02D38
:100600006DE2099510950095F094E094E11CF11CC1
:10061000011D111D2AE0B801A701CE012EDFDF91D7
:10062000CF911F910F91FF90EF9008950F931F931B
:100630008C01D6DFC801E3DE1F910F910895AB0155
:10064000662757FD6095762FCBDF08950F931F9394
:100650008C01AB01662757FD6095762FC1DFC8017D
:10066000CEDE1F910F910895DC012115310541F473
:10067000ED91FC910190F081E02D642F0995089592
:100680002A30310511F4ACDF0895F7DE08950F9399
:100690001F938C01E9DFC801B2DE1F910F9108950D
:1006A0001F920F920FB60F9211242F938F939F9347
:1006B000AF93BF938091A6009091A700A091A8004E
:1006C000B091A9008050904CAF4FBF4F8093A600CF
:1006D0009093A700A093A800B093A90027C0809191
:1006E000A6009091A700A091A800B091A900805801
:1006F0009E43A040B0408093A6009093A700A09393
:10070000A800B093A9008091AA009091AB00A0919D
:10071000AC00B091AD000196A11DB11D8093AA005F
:100720009093AB00A093AC00B093AD008091A60075
:100730009091A700A091A800B091A90081589E4374
:10074000A040B04060F6BF91AF919F918F912F91E3
:100750000F900FBE0F901F9018958FB7F8942091AF
:10076000AA003091AB004091AC005091AD008FBF1A
:10077000B901CA010895EF92FF920F931F937B0175
:100780008C018FB7F8944091AA005091AB00609112
:10079000AC007091AD008FBF2FB7F8948091AA0084
:1007A0009091AB00A091AC00B091AD002FBF841B25
:1007B000950BA60BB70B8E159F05A007B10760F32D
:1007C0001F910F91FF90EF900895019759F0FC0150
:1007D000EE0FFF1FEE0FFF1F32978FB7F894319780
:1007E000F1F78FBF0895789483B7826083BF83B792
:1007F000816083BF89B7816089BF8EB582608EBDFD
:100800008EB581608EBD8FB581608FBD85B58460EA
:1008100085BD85B5806485BD329A319A309A379A04
:100820001AB808958093820008958F709091820085
:100830009295990F990F907C982B97B9369A369983
:10084000FECF24B145B1942F80E030E0282B392B26
:10085000C90108951F93CF93DF93182FEB0161E037
:1008600028D0E12FF0E0E35AFF4F8491833031F438
:100870008FB580688FBDDBBDCABD17C0843031F431
:100880008FB580628FBDD9BDC8BD0FC0853029F43A
:1008900085B5806285BDC3BD08C0C038D10514F4DC
:1008A00060E001C061E0812F22D0DF91CF911F91E4
:1008B0000895282F30E0C901875B9F4FFC01949178
:1008C0002B5C3F4FF9018491882381F0E82FF0E001
:1008D000EA5DFF4FE491F0E0662329F48081909572
:1008E0008923808308958081892B80830895482FF0
:1008F00050E0CA01835A9F4FFC012491CA01875BD3
:100900009F4FFC0194914B5C5F4FFA01349133236C
:1009100011F1222381F0233019F48FB58F7704C0B1
:10092000243021F48FB58F7D8FBD05C0253019F49B
:1009300085B58F7D85BDE32FF0E0E55DFF4FE49148
:10094000F0E0662329F480819095892380830895BF
:100950008081892B80830895482F50E0CA01835AF3
:100960009F4FFC012491CA01875B9F4FFC0194912A
:100970004B5C5F4FFA013491332319F420E030E0EF
:100980001FC0222381F0233019F48FB58F7704C064
:10099000243021F48FB58F7D8FBD05C0253019F42B
:1009A00085B58F7D85BDE32FF0E0E05DFF4FE491DD
:1009B000F0E0808120E030E0892311F021E030E098
:1009C000C9010895EF92FF920F931F937B018C0151
:1009D00022E030E040E050E0F6D2205C3D4B404F5A
:1009E0005F4FCA01B901A8019701EDD2C901DA012F
:1009F0000197A109B109292F3A2F4B2F552747FD00
:100A00005A950196A11DB11D20BD815089B9549AF6
:100A1000539A579A1F910F91FF90EF9008955D9B05
:100A2000FECF8CB908958091AE009091AF008058B0
:100A30009F4F2091B0003091B100821B930B60E872
:100A400070E08CD208954091B0005091B100809137
:100A5000AE009091AF008417950719F42FEF3FEF88
:100A60000EC0FA01EE54FF4F2081CA01019660E8E2
:100A700070E074D29093B1008093B00030E0C9016F
:100A800008958091B0009091B1009093AF00809351
:100A9000AE0008951F920F920FB60F9211242F935C
:100AA0003F934F935F936F937F938F939F93AF93F6
:100AB000BF93EF93FF934CB1E091AE00F091AF0084
:100AC000CF01019660E870E049D29C018091B000AE
:100AD0009091B1002817390739F0EE54FF4F408349
:100AE0003093AF002093AE00FF91EF91BF91AF9193
:100AF0009F918F917F916F915F914F913F912F9136
:100B00000F900FBE0F901F901895FB01DC010D9008
:100B10000020E9F7119701900D920020E1F7089568
:100B2000FB019F01E8944230BCF04532ACF44A30FE
:100B300029F497FB1EF4909581959F4F642F77279A
:100B40005DD2805D8A330CF0895D8193CB01009783
:100B5000A9F716F45DE251931082C90100C0DC01CF
:100B6000FC01672F71917723E1F7329704C07C91E4
:100B70006D9370836291AE17BF07C8F30895505804
:100B8000BB27AA270ED04DC13ED130F043D120F073
:100B900031F49F3F11F41EF433C10EF4E095E7FBEE
:100BA00029C1E92F4FD180F3BA1762077307840771
:100BB000950718F071F49EF567C10EF4E0950B2EC1
:100BC000BA2FA02D0B01B90190010C01CA01A0019F
:100BD0001124FF27591B99F0593F50F4503E68F1FA
:100BE0001A16F040A22F232F342F4427585FF3CF3B
:100BF000469537952795A795F0405395C9F77EF40C
:100C00001F16BA0B620B730B840BBAF09150A1F054
:100C1000FF0FBB1F661F771F881FC2F70EC0BA0FDA
:100C2000621F731F841F48F4879577956795B79562
:100C3000F7959E3F08F0B3CF9395880F08F099275A
:100C4000EE0F9795879508950CD0EBC0E3D040F058
:100C5000DAD030F021F45F3F19F0CCC0511115C14A
:100C6000CFC0F0D098F39923C9F35523B1F3951B66
:100C7000550BBB27AA2762177307840738F09F5FBD
:100C80005F4F220F331F441FAA1FA9F333D00E2E2C
:100C90003AF0E0E830D091505040E695001CCAF799
:100CA00029D0FE2F27D0660F771F881FBB1F26175E
:100CB00037074807AB07B0E809F0BB0B802DBF0131
:100CC000FF2793585F4F2AF09E3F510568F092C06E
:100CD000DCC05F3FECF3983EDCF386957795679533
:100CE000B795F7959F5FC9F7880F911D96958795E2
:100CF00097F90895E1E0660F771F881FBB1F621701
:100D000073078407BA0720F0621B730B840BBA0BBE
:100D1000EE1F88F7E095089504D06894B111B5C02E
:100D2000089598D088F09F5790F0B92F9927B75120
:100D3000A0F0D1F0660F771F881F991F1AF0BA959F
:100D4000C9F712C0B13081F09FD0B1E008959CC0C6
:100D5000672F782F8827B85F39F0B93FCCF3869595
:100D600077956795B395D9F73EF4909580957095F2
:100D700061957F4F8F4F9F4F0895E89409C097FB6F
:100D80003EF490958095709561957F4F8F4F9F4F62
:100D90009923A9F0F92F96E9BB279395F6958795A6
:100DA00077956795B795F111F8CFFAF4BB0F11F469
:100DB00060FF1BC06F5F7F4F8F4F9F4F16C0882310
:100DC00011F096E911C0772321F09EE8872F762F46
:100DD00005C0662371F096E8862F70E060E02AF087
:100DE0009A95660F771F881FDAF7880F9695879573
:100DF00097F9089597F99F6780E870E060E008959B
:100E00009FEF80EC089500240A9416161706180622
:100E10000906089500240A941216130614060506FE
:100E20000895092E0394000C11F4882352F0BB0F8F
:100E300040F4BF2B11F460FF04C06F5F7F4F8F4FF2
:100E40009F4F089557FD9058440F551F59F05F3F2D
:100E500071F04795880F97FB991F61F09F3F79F0DC
:100E600087950895121613061406551FF2CF46955E
:100E7000F1DF08C0161617061806991FF1CF8695E0
:100E80007105610508940895E894BB2766277727C4
:100E9000CB0197F908950BD0C4CFB5DF28F0BADFA6
:100EA00018F0952309F0A6CFABCF1124EECFCADFFF
:100EB000A0F3959FD1F3950F50E0551F629FF0016D
:100EC000729FBB27F00DB11D639FAA27F00DB11DC6
:100ED000AA1F649F6627B00DA11D661F829F22274F
:100EE000B00DA11D621F739FB00DA11D621F839FD6
:100EF000A00D611D221F749F3327A00D611D231FAC
:100F0000849F600D211D822F762F6A2F11249F57F9
:100F100050408AF0E1F088234AF0EE0FFF1FBB1F1C
:100F2000661F771F881F91505040A9F79E3F5105BB
:100F300070F060CFAACF5F3FECF3983EDCF386956C
:100F400077956795B795F795E7959F5FC1F7FE2B66
:100F5000880F911D9695879597F9089597FB092E0F
:100F600007260AD077FD04D049D006D000201AF415
:100F7000709561957F4F0895F6F7909581959F4FF5
:100F80000895A1E21A2EAA1BBB1BFD010DC0AA1FCA
:100F9000BB1FEE1FFF1FA217B307E407F50720F0E2
:100FA000A21BB30BE40BF50B661F771F881F991F5D
:100FB0001A9469F760957095809590959B01AC01A6
:100FC000BD01CF01089597FB092E05260ED057FDD0
:100FD00004D0D7DF0AD0001C38F4509540953095E6
:100FE00021953F4F4F4F5F4F0895F6F790958095AD
:100FF000709561957F4F8F4F9F4F0895AA1BBB1B24
:1010000051E107C0AA1FBB1FA617B70710F0A61B08
:10101000B70B881F991F5A95A9F780959095BC0129
:10102000CD010895EE0FFF1F0590F491E02D099476
:04103000F894FFCF62
:101034002E0074656D70203D20002F0054656D7086
:10104400657261747572653A0A000D000000000053
:04105400CA010100CC
:00000001FF
