:100000000C9436000C945E000C945E000C945E0020
:100010000C945E000C945E000C945E000C945E00E8
:100020000C945E000C945E000C945E000C945E00D8
:100030000C945E000C945E000C945E000C945E00C8
:100040000C9449020C945E000C9471030C945E00B5
:100050000C945E000C945E000C945E000C945E00A8
:100060000C945E000C945E003A01480211241FBEFD
:10007000CFEFD4E0DEBFCDBF11E0A0E0B1E0EEEA0B
:10008000FAE002C005900D92A030B107D9F711E057
:10009000A0E0B1E001C01D92A63DB107E1F710E07C
:1000A000CCE6D0E004C02297FE010E945205C8367B
:1000B000D107C9F70E946D010C9456050C940000FD
:1000C000FC01728361830895FC0112861082148200
:1000D00013821682158281E081870895FC011282C5
:1000E000118267831086E55BFF4F80E481938FE385
:1000F0008083EC54F040CF010E94640008956A3080
:1001000021F06D3011F0662309F460E20E946E0068
:1001100008956A3021F06D3011F0662309F460E231
:100120000E946E00089560E20E946E00089560E2F1
:100130000E946E000895CF93DF93EC01188216168B
:10014000170654F56A30710539F16D30710521F0EB
:100150006115710509F10FC08A85FE01E80FF11DD7
:100160001386CE010E94640081E08883CE010B9645
:100170009C838B8311C08A85FE01E80FF11D638784
:100180008F5F8A87C45BDF4F9881CC54D04089173A
:1001900018F0CE010E9464008881813029F4E98141
:1001A000FA81309709F0099588819927DF91CF91DD
:1001B0000895CF93DF93EC018881882301F181308A
:1001C00019F020E030E005C09E01255F3F4F82E03E
:1001D00088838985882359F0AE014B5F5F4FBE014C
:1001E000695F7F4FC9010E94B2049C838B838B811E
:1001F0009C81892B21F0198681E090E002C080E08B
:1002000090E0DF91CF9108950E94D9009927089539
:10021000CF93DF93EC010E94D900882319F480E08A
:1002200090E008C081E08987EB81FC81808199277B
:1002300087FD9095DF91CF910895CF93DF93EC01E7
:100240000E94D900882319F480E090E006C081E084
:1002500089878B819C810E949404DF91CF910895BE
:10026000019739F46F5F7F4F21F480E091E00E94A5
:10027000930008956FEF7FEF81E090E00E943001DE
:1002800008950F931F93CF93DF93CDE4D1E000E067
:1002900011E010C0CE010E943B02BC01C8010E94C7
:1002A0009B00882339F0C8010E941D01BC01CE01CA
:1002B0000E941E02CE010E943E02882359F7DF9160
:1002C000CF911F910F91089540E052EC61E070E0F2
:1002D0008DE491E00E9442020895CFEFD4E0DEBFAA
:1002E000CDBF0E94B5020E9464010E944101FDCF72
:1002F00008950895CB01BA013327442755270E945A
:10030000B70308952AE00E947A010895AB01662799
:1003100077270E9482010895862F0E94AF030895D7
:10032000862F0E94AF0308950F931F938C016DE0F9
:100330000E9490016AE0C8010E9490011F910F91F4
:1003400008950F931F938C010E948201C8010E949F
:1003500094011F910F9108950F931F938C010E9498
:100360008601C8010E9494011F910F9108950F9377
:100370001F938C010E948C01C8010E9494011F915F
:100380000F9108950F931F938C010E949001C80153
:100390000E9494011F910F910895EF92FF920F9385
:1003A0001F93CF93DF93EC017A018B0177FF0BC092
:1003B0006DE20E94900110950095F094E094E11C8C
:1003C000F11C011D111D2AE0B801A701CE010E94F8
:1003D0007A01DF91CF911F910F91FF90EF900895D7
:1003E0000F931F938C010E94CD01C8010E949401BC
:1003F0001F910F9108952115310521F4642F0E945A
:10040000900108952A30310519F40E94CD01089514
:100410000E947A0108950F931F938C010E94FB01A3
:10042000C8010E9494011F910F910895AB016627A6
:1004300057FD6095762F0E94CD0108950F931F936D
:100440008C010E941602C8010E9494011F910F9115
:100450000895CB010E94870408950F931F938C0188
:100460000E942902C8010E9494011F910F910895D2
:100470000E94680308950E94490308950E9438036A
:1004800099270895CB01BA010E94F70208950895B3
:1004900008951F920F920FB60F9211248F939F937E
:1004A000AF93BF938091520190915301A091540159
:1004B000B09155010196A11DB11D809352019093F9
:1004C0005301A0935401B0935501BF91AF919F91F7
:1004D0008F910F900FBE0F901F9018956091520151
:1004E00070915301809154019091550127E0660F5E
:1004F000771F881F991F2A95D1F72DE730E040E03C
:1005000050E00E94FF04CA01B9010895AF92BF9262
:10051000CF92DF92EF92FF920F931F935B016C01DA
:100520000E946E027B018C010E946E026E197F098F
:10053000800B910B6A157B058C059D05A8F31F9117
:100540000F91FF90EF90DF90CF90BF90AF90089504
:10055000019751F0880F991F880F991F02972FB7A5
:10056000F8940197F1F72FBF0895789410925201F3
:1005700010925301109254011092550184B582607B
:1005800084BD84B5816084BD85B5826085BD85B537
:10059000816085BDEEE6F0E0808181608083E1E8E6
:1005A000F0E0808182608083808181608083E0E8E8
:1005B000F0E0808181608083E1EBF0E08081846005
:1005C0008083E0EBF0E0808181608083EAE7F0E007
:1005D000808184608083808182608083808181606B
:1005E00080838081806880831092C1000895EF929B
:1005F000FF920F931F937B018C0122E030E040E0DB
:1006000050E00E942105205C3D4B404F5F4FCA01E6
:10061000B901A80197010E942105215030404040B6
:100620005040BB2757FDBA95A52F942F832F2F5FDE
:100630003F4F4F4F5F4F8093C50021502093C40020
:10064000E1ECF0E08081806180838081886080833C
:100650008081806880831F910F91FF90EF900895B3
:10066000982F8091C00085FFFCCF9093C60008951D
:1006700080914E0190914F0180589F4F20915001E1
:1006800030915101821B930B60E870E00E94EC04F2
:100690000895409150015091510180914E019091E7
:1006A0004F018417950719F48FEF9FEF0895FA0112
:1006B000EA5AFE4F2081CA01019660E870E00E946C
:1006C000EC049093510180935001822F9927089553
:1006D000809150019091510190934F0180934E0170
:1006E00008951F920F920FB60F9211242F933F93EC
:1006F0004F935F936F937F938F939F93AF93BF932A
:10070000EF93FF934091C600E0914E01F0914F01AD
:10071000CF01019660E870E00E94EC049C0180919A
:100720005001909151012817390739F0EA5AFE4FCC
:10073000408330934F0120934E01FF91EF91BF9181
:10074000AF919F918F917F916F915F914F913F9169
:100750002F910F900FBE0F901F9018950895982F0E
:100760008091C00085FFFCCF9093C60008952F9222
:100770003F924F925F926F927F928F929F92AF9231
:10078000BF92CF92DF92EF92FF920F931F93CF937E
:10079000DF93CDB7DEB7A0970FB6F894DEBF0FBEDC
:1007A000CDBF6B017C0129013A01611571058105FD
:1007B000910541F48091C00085FFFCCF80E38093D8
:1007C000C6004BC08824992454011E010894211CA2
:1007D000311C8101080D191DC701B601A301920149
:1007E0000E94FF04F80160830894811C911CA11CE5
:1007F000B11CC701B601A30192010E94FF04690167
:100800007A01211531054105510519F70894810830
:100810009108A108B108F101E80DF91D0894811CA7
:10082000911CA11CB11C14C0089481089108A10856
:10083000B10880818A3018F4982F905D02C0982FFB
:10084000995C8091C00085FFFCCF9093C6003197E2
:1008500081149104A104B10439F7A0960FB6F8945D
:10086000DEBF0FBECDBFDF91CF911F910F91FF90E3
:10087000EF90DF90CF90BF90AF909F908F907F9040
:100880006F905F904F903F902F90089520E130E05F
:1008900040E050E00E94B703089528E030E040E0D7
:1008A00050E00E94B703089522E030E040E050E0BD
:1008B0000E94B70308958091C00085FFFCCF8AE0B5
:1008C0008093C6000895EF92FF920F931F937B01D0
:1008D0008C0197FF0FC08091C00085FFFCCF8DE297
:1008E0008093C60010950095F094E094E11CF11CF3
:1008F000011D111D2AE030E040E050E0C801B701C1
:100900000E94B7031F910F91FF90EF900895FC0193
:1009100007C08091C00085FFFCCF31969093C60040
:1009200090819923B1F70895FC0188279927E894CD
:1009300021912032E9F3293010F02E30C8F32B3208
:1009400041F02D3239F4689404C00E94E404820F0F
:10095000911D219120532A30C0F31EF4909581956A
:100960009F4F0895009731F4DA018D919C91009783
:1009700009F40EC0DC01FB013D912191222319F005
:100980003217C9F3FACF332331F4DA011D921C92E6
:100990008827992708951197AF93BF93FB013D9145
:1009A0002191321771F4332321F488279927119765
:1009B00002C01E921196FA01A193B0839F918F916C
:1009C0000895222369F7EACF7AE0979F902D879FB9
:1009D000802D910D1124089597FB092E07260AD02A
:1009E00077FD04D049D006D000201AF470956195A7
:1009F0007F4F0895F6F7909581959F4F0895A1E256
:100A00001A2EAA1BBB1BFD010DC0AA1FBB1FEE1F88
:100A1000FF1FA217B307E407F50720F0A21BB30BD3
:100A2000E40BF50B661F771F881F991F1A9469F74F
:100A300060957095809590959B01AC01BD01CF01AB
:100A4000089597FB092E05260ED057FD04D0D7DF59
:100A50000AD0001C38F450954095309521953F4FB1
:100A60004F4F5F4F0895F6F790958095709561957B
:100A70007F4F8F4F9F4F0895AA1BBB1B51E107C0AB
:100A8000AA1FBB1FA617B70710F0A61BB70B881F1E
:100A9000991F5A95A9F780959095BC01CD010895AD
:0E0AA000EE0FFF1F0590F491E02D0994FFCF9B
:00000001FF
