:1000000004C127C126C125C124C123C122C121C1E8
:1000100020C184C71EC11DC11CC11BC11AC119C189
:1000200018C117C116C188073C2F63656E746572CD
:100030003E3C68723E202056312E30203C612068C4
:100040007265663D22687474703A2F2F7777772E29
:100050006E75656C656374726F6E6963732E636F22
:100060006D223E7777772E6E75656C656374726F5F
:100070006E6963732E636F6D3C613E0020203C62AD
:10008000723E3C2F666F6E743E3C2F68323E2000FD
:100090003C62723E205265616420646967697461E4
:1000A0006C20616E616C6F6720696E70757473206F
:1000B0004845524520003C62723E20436F6E747288
:1000C0006F6C206469676974616C206F75747075FA
:1000D000747320003C68723E3C62723E203C683281
:1000E0003E3C666F6E7420636F6C6F723D22626C73
:1000F0007565223E2D2D2050757420796F75722004
:1001000041524455494E4F206F6E6C696E65202DEB
:100110002D20003C63656E7465723E3C703E3C6809
:10012000313E57656C636F6D6520746F204172645A
:1001300075696E6F2045746865726E6574205368CA
:1001400069656C642056312E3020203C2F68313E8A
:100150003C2F703E2000485454502F312E30203216
:100160003030204F4B0D0A436F6E74656E742D5402
:100170007970653A20746578742F68746D6C0D0A17
:100180000D0A00485454502F312E30203230302088
:100190004F4B0D0A436F6E74656E742D5479706504
:1001A0003A20746578742F68746D6C0D0A0D0A3CE2
:1001B00068313E323030204F4B3C2F68313E0000DA
:1001C0000000000000000000030405000000000023
:1001D0000000000102040810204080010204081001
:1001E000200102040810200404040404040404028E
:1001F000020202020203030303030300003633304A
:100200000000383532000037343111241FBECFE5ED
:10021000D4E0DEBFCDBF10E0A0E6B0E0E4EBF1E15A
:1002200002C005900D92AA37B107D9F712E0AAE7EC
:10023000B0E001C01D92AC39B107E1F710E0C8E2AF
:10024000D0E003C02297FE01B1D7C632D107D1F763
:100250004EC6D6CE0F931F93182F062F60E08AE06C
:100260003ED7802F8F71812B8FB9779BFECF1FB820
:10027000779BFECF07FF03C01FB8779BFECF61E0DF
:100280008AE02DD78FB199271F910F910895FF9282
:100290000F931F93082F162FF42E60E08AE01FD7CC
:1002A0001F71012B0FB9779BFECFFFB8779BFECF55
:1002B00061E08AE014D71F910F91FF9008950F938A
:1002C0001F93CF93DF938C01EB0160E08AE007D7A7
:1002D0008AE38FB9779BFECFFE019E01200F311F6D
:1002E00005C01FB8779BFECF8FB18193E217F3074C
:1002F000C1F7108261E08AE0F2D6DF91CF911F91C1
:100300000F9108950F931F93CF93DF938C01EB010F
:1003100060E08AE0E4D68AE78FB9779BFECF20E0E1
:1003200030E006C089918FB9779BFECF2F5F3F4F9A
:1003300020173107B9F761E08AE0D1D6DF91CF917C
:100340001F910F9108951F93CF93DF93182FC82FFC
:10035000DD27C076D07080917C009927C817D90717
:1003600081F043E06FE180EA92DF85E0D595C795A3
:100370008A95E1F74C2F6FE180E889DF10761093C2
:100380007C00DF91CF911F9108951F93182FDBDF21
:10039000612F80E05FDF99271F9108950F931F93CE
:1003A000082F162FD0DF412F602F80E470DF1F91C0
:1003B0000F9108950F931F938B01682F84EDEEDF4B
:1003C000602F86EDEBDF012F1127602F87EDE6DF31
:1003D00003C08FE090E0FED58AEED7DF80FDF9CF35
:1003E0001F910F9108958770682F85E7D7DF0895D3
:1003F0000F931F938C0161E08AE020D661E08AE0D0
:100400006ED661E08BE01AD661E08DE017D660E031
:100410008CE014D660E08BE062D660E08DE05FD6C1
:1004200080E58DB9709A4FEF60E08FEF30DF62E3C7
:1004300070E080E090E0AED510927B0010927A00E0
:1004400060E088E0ABDF60E089E0A8DF60E08CE09E
:10045000A5DF60E08DE0A2DF6EEF8AE09FDF69E15B
:100460008BE09CDF6FEF84E099DF69E185E096DF48
:100470006FEF86E093DF6FE187E090DF60EB88E36A
:100480008DDF6FE388E28ADF60E389E287DF69EF6F
:1004900080E384DF67EF81E381DF6DE080EC7EDF66
:1004A00060E081EC7BDF42E362EC80E8F0DE62E159
:1004B00086EC74DF6CE087EC71DF62E184EC6EDF68
:1004C0006CED8AEC6BDF65E08BEC68DFF801608136
:1004D00084EE64DFF801618185EE60DFF8016281FE
:1004E00082EE5CDFF801638183EE58DFF8016481FE
:1004F00080EE54DFF801658181EE50DF60E071E04D
:1005000080E158DF8FE11FDF40EC6BE180E8BFDE68
:1005100044E06FE180E8BBDE1F910F91089582E710
:1005200034DF99270895EF92FF920F931F938C0168
:100530007B016FEF82E032DF69E183E02FDF602F24
:10054000615086E02BDF0150164E612F77270F5F39
:10055000194187E023DF40E060E08AE798DEB701D9
:10056000C801D0DE48E06FE180E891DE8CE10DDF6C
:1005700081FF04C048E06FE180EA89DE1F910F919E
:10058000FF90EF900895CF92DF92EF92FF920F933A
:100590001F93CF93DF937C016B0189E3F6DE882301
:1005A00019F4C0E0D0E05BC060917A0080E0F6DE34
:1005B00060917A0070917B00672F772781E0EEDEF3
:1005C00060E08AE347DE082F112710937B00009339
:1005D0007A0060E08AE33EDE9927982F8827082B6F
:1005E000192B10937B0000937A0060E08AE332DEDF
:1005F000C82FDD2760E08AE32DDE9927982F882712
:10060000C82BD92B249760E08AE324DE082F11271A
:1006100060E08AE31FDE9927982F8827802B912B93
:100620009701215030402C173D0708F4E90187FD60
:1006300003C0C0E0D0E003C0B601CE0140DE60914F
:100640007A008CE0ABDE60917A0070917B00672FBE
:1006500077278DE0A3DE40E46EE180E818DECE016E
:10066000DF91CF911F910F91FF90EF90DF90CF908E
:10067000089508950895CB01BA01A90147D20895BC
:10068000CB01BA01A90152D20895CB01B1DE089580
:10069000862FA9DE0895862FBA018CDE0895CB013E
:1006A000BA0171DF0895CB01BA01422F73D00895CA
:1006B000CB01BA0185D099270895CB0130D1089597
:1006C000CB01BA019AD099270895CB01BA014DD137
:1006D0000895CB01BED10895CB01EFD10895DED1AD
:1006E0000895CB0132D20895CB01BA015AD20895B0
:1006F000CF93DF93EC01FB01413051F43897AF0108
:100700006627772738964F5E5F4F6F4F7F4F21C028
:10071000423029F040E050E060E070E01AC03897C5
:10072000AF016627772738964A5F5F4F6F4F7F4F3D
:1007300010C088819927982F882729813327822BF9
:10074000932BAA27BB27480F591F6A1F7B1F22968E
:100750003297E230F10568F7EF2B79F0888199271D
:10076000982F8827AA2797FDA095BA2F02C06070FE
:100770007070480F591F6A1F7B1FCB01AA27BB2728
:100780000097A105B10599F7CA0180959095DF9171
:10079000CF9108959C0140936100DB01E1E8F0E016
:1007A0008D91819380E0E538F807D1F7D901E5E82C
:1007B000F0E08D91819380E0EB38F807D1F7089550
:1007C000FC0169327105B0F08485883099F4858523
:1007D000863081F4B696A1E8B0E090818C919817AC
:1007E00049F43196119680E0A538B807B1F781E059
:1007F00090E0089580E090E00895FC016A32710570
:10080000C0F084858830A9F48585882391F4868595
:10081000853479F4A1E8B0E0968D8C91981749F46D
:100820003196119680E0A538B807B1F781E090E0E5
:10083000089580E090E00895FC01A5E8B0E086818D
:1008400080838D918683319680E0AB38B807B9F705
:1008500008950F931F938C01FC01108E118E80E47C
:10086000848B158A868B40E064E170E0C8010E96A7
:100870003FDF292F3327F801208F818F1F910F91A0
:1008800008959C01FC01A1E8B0E0828D868F8D91D6
:10089000828F319680E0A538B807B9F7C901D9DF52
:1008A0000895DC01FC01B29692E08081828311926E
:1008B0009150D9F780916100FD0183A3B99694E02E
:1008C0008081680F711D84816483222311F08083ED
:1008D00001C01082672F772791503197992381F7B4
:1008E000222351F4FD0116A217A28091600080A777
:1008F00011A68E5F80936000FD0112AA13AA442303
:1009000051F082E086AB84E087AB85E080AF80E881
:1009100081AF80E602C080E5FD0186A70895CF93F0
:10092000DF93EC0189DF1C8A82E08D8BFE01A5E854
:10093000B0E0868980A38D91868B319680E0AB38BC
:10094000B807B9F7FE017C96A1E8B0E08081828704
:100950008D91819380E0A538B807C1F7BE018AE286
:1009600090E0E1DDDF91CF9108950F931F93CF9336
:10097000DF93EC018B0160DFCE0183DF1AA28CA133
:10098000883F18F08DA18F5F8DA38CA1885F8CA309
:10099000BE01C801C8DDDF91CF911F910F9108956D
:1009A000AF92BF92CF92DF92EF92FF920F931F937D
:1009B000CF93DF93EC015B01042F79013DDF0D3D07
:1009C00008F00CED188A045E098BCE015ADF8F2DDA
:1009D00099278CA3EDA21EA204510FA30850E8E2B0
:1009E000CE2ED12CCC0EDD1E18A679E2E72EF12CEE
:1009F000EC0EFD1E19A620E030E00BC0FF27DE0143
:100A0000AE0FBF1FEA0DFB1D8081FD0182A72F5F86
:100A10003F4FE22F201790F31127005F1F4F41E057
:100A2000B801CE014A9664DE292F3327F6012083D0
:100A3000F7018083BE01C8014A9675DDDF91CF9131
:100A40001F910F91FF90EF90DF90CF90BF90AF90EC
:100A500008950F931F938C01EFDEF801108A8CE24A
:100A6000818BC8010EDF82E1F80187A720E041E019
:100A700061E070E0C80115DF42E060E270E0C801AB
:100A80004A9636DE292F3327F80122AB83ABB80113
:100A90008AE390E048DD1F910F91089580917D00D9
:100AA00090917E00892B19F480E090E00895809168
:100AB0007F009091800082960895FC012089332761
:100AC000322F222781899927282B392B2451304016
:100AD00030937E0020937D0086A582958F709927A4
:100AE000880F991F880F991F9093800080937F0033
:100AF000281B390B30937E0020937D0012161306BD
:100B000024F010927E0010927D000895DC01A60F63
:100B1000B71FD69603C08D936F5F7F4FFA014F5F6B
:100B20005F4F84918823B9F7CB010895DA01FC0166
:100B3000E60FF71FF69604C081936F5F7F4F119603
:100B40008C918823C9F7CB010895CF93DF93EC01F3
:100B500073DE80E18FA760917D0070917E0061154A
:100B6000710529F421E040E061E070E002C021E07D
:100B700040E0CE0196DE188A88E2898BCE0181DEC4
:100B800042E06CE170E0CE014A96B2DD292F3327B6
:100B90002AAB8BABBE0186E390E0C5DCDF91CF9141
:100BA0000895EF92FF920F931F938C017B0189E1CF
:100BB000F80187A79B01285D3F4F832F9927808BE2
:100BC000218BC80146DEF80112AA13AA8CE190E03D
:100BD000E80EF91E42E0B701C8014A9689DD292FC7
:100BE0003327F80122AB83ABB801C7014A969BDCDF
:100BF0001F910F91FF90EF900895EF92FF920F9346
:100C00001F9388E6E82E80E0F82E0BE810E0B7018D
:100C1000C8013BDD62E0C8013BDD6AE070E080E0D6
:100C200090E0B8D140E858E064E1C80134DD64EFF9
:100C300071E080E090E0AED140E959E064E1C801A4
:100C40002ADD64EF71E080E090E0A4D140E858E054
:100C500064E1C80120DD64EF71E080E090E09AD1AA
:100C600040E959E064E1C80116DD64EF71E080E01D
:100C700090E090D146E754E064E1C8010CDD64E601
:100C800070E080E090E086D120E544E650E0B701D6
:100C9000C80109DD1F910F91FF90EF900895EF9229
:100CA000FF920F931F938C019BE8E92E90E0F92EA1
:100CB00026E531E040E050E0B801C701DCDC23E18B
:100CC00031E0AC01B801C701D6DC24ED30E0AC0165
:100CD000B801C701D0DC26EB30E0AC01B801C70198
:100CE000CADC20E930E0AC01B801C701C4DC2CE764
:100CF00030E0AC01B801C701BEDC28E230E0AC0155
:100D0000B801C701B8DC1F910F91FF90EF900895D3
:100D1000CF93DF93EC01FB0190E011C08081281795
:100D200059F431968081882349F4219688818D3346
:100D300019F4FB0191E002C0FB0190E021962881AB
:100D4000222321F0203211F0992341F39130C1F494
:100D5000DE01ECE8F0E002C0819311962A2F2C1BF3
:100D60008C91882341F0803231F0863221F030E0DE
:100D7000E23AF30789F7E22FFF27E457FF4F10828B
:100D8000892F9927DF91CF9108956EE670E0C0DF3B
:100D9000882329F080918C0080538A3008F08FEFEF
:100DA000992787FD909508950F931F93CF93DF9315
:100DB00043EA50E064EF71E08BE890E070DC8C0176
:100DC000009709F48FC0AC0163EA70E08BE890E013
:100DD0006FDC882331F063EA70E08BE890E06DDC33
:100DE00081C0A80163EA70E08BE890E069DC8823A9
:100DF00009F478C08091BA00813061F48091C50017
:100E0000883009F06FC0A80163EA70E08BE890E0D9
:100E10005CDC68C0863009F065C08091C70088231B
:100E200009F060C08091C80099272091620030913C
:100E300063008217930709F055C08091D20099276B
:100E400081FF06C063EA70E08BE890E042DC4AC0B4
:100E500084FF48C063EA70E08BE890E03DDC8BE8FB
:100E600090E03DDCEC01009751F48091D20080FFCE
:100E700039C063EA70E08BE890E033DC33C0BC013A
:100E80006D557F4F44E050E082E790E05DD1892BC3
:100E900051F023E831E040E050E063EA70E08BE895
:100EA00090E0E9DB13C0BE0169557F4F42E050E09E
:100EB00087E790E049D1892B31F0CE0188559F4FCB
:100EC00064DF813021F483EA90E0E9DE8C0163EA9B
:100ED00070E08BE890E005DCA80163EA70E08BE845
:100EE00090E002DCDF91CF911F910F910895CFE543
:100EF000D4E0DEBFCDBF7BD080DE56DFFECF6F5F9C
:100F00007F4F29F4019719F48BE890E0B3DB089543
:100F10006FEF7FEF81E090E0F2DF08951F920F9274
:100F20000FB60F9211248F939F93AF93BF9380912D
:100F3000980290919902A0919A02B0919B02019619
:100F4000A11DB11D8093980290939902A0939A02DB
:100F5000B0939B02BF91AF919F918F910F900FBE65
:100F60000F901F901895609198027091990280914E
:100F70009A0290919B0227E0660F771F881F991FA6
:100F80002A95D1F72DE730E040E050E0EBD0CA01E0
:100F9000B9010895AF92BF92CF92DF92EF92FF9284
:100FA0000F931F935B016C01DEDF7B018C01DBDFA4
:100FB0006E197F09800B910B6A157B058C059D05C9
:100FC000B0F31F910F91FF90EF90DF90CF90BF9003
:100FD000AF900895019751F0880F991F880F991FBE
:100FE00002972FB7F8940197F1F72FBF08957894DF
:100FF000109298021092990210929A0210929B02FB
:1010000083B7826083BF83B7816083BF89B7816004
:1010100089BF8EB582608EBD8EB581608EBD8FB565
:1010200081608FBD85B5846085BD85B5806485BDD3
:10103000329A319A309A379A1AB80895282F33275E
:10104000C9018D529E4FFC01949129513E4FF901E7
:101050008491882381F0E82FFF27EB5FFD4FE49117
:10106000FF27662329F48081909589238083089542
:101070008081892B80830895482F5527CA01815488
:101080009E4FFC012491CA018D529E4FFC01949108
:1010900049515E4FFA0134913323F1F0222381F05C
:1010A000233019F48FB58F7704C0243021F48FB525
:1010B0008F7D8FBD05C0253019F485B58F7D85BD29
:1010C000E32FFF27E550FE4FE491FF27808189231E
:1010D00019F081E090E0089580E090E00895482FB5
:1010E0005527CA0181549E4FFC012491CA018D529B
:1010F0009E4FFC01949149515E4FFA013491332384
:1011000011F1222381F0233019F48FB58F7704C0B9
:10111000243021F48FB58F7D8FBD05C0253019F4A3
:1011200085B58F7D85BDE32FFF27E050FE4FE4910D
:10113000FF27662329F48081909589238083089571
:101140008081892B80830895FB01DC014150504050
:1011500030F08D910190801919F40020B9F7881BA7
:10116000990B0895A1E21A2EAA1BBB1BFD010DC00D
:10117000AA1FBB1FEE1FFF1FA217B307E407F50747
:1011800020F0A21BB30BE40BF50B661F771F881F23
:10119000991F1A9469F760957095809590959B01B9
:1011A000AC01BD01CF010895EE0FFF1F0590F49132
:0411B000E02D099491
:1011B4000A5050000AB110F6545558100024636DBB
:0A11C400640047455420002F20006E
:00000001FF
