:100000000C945C000C9484000C9484000C94840088
:100010000C9484000C9484000C9484000C94840050
:100020000C9484000C9484000C9484000C94840040
:100030000C9484000C9484000C9484000C94840030
:100040000C94B3020C9484000C9450040C9484001F
:100050000C9484000C9484000C9484000C94840010
:100060000C9484000C948400000024272A000025AE
:10007000282B000023262904040404040404040299
:100080000202020202030303030303010204081035
:100090002040800102040810200102040810200002
:1000A0000000070002010000030406000000000039
:1000B000000000006001B20211241FBECFEFD4E0A7
:1000C000DEBFCDBF11E0A0E0B1E0E6EDFDE002C093
:1000D00005900D92A630B107D9F711E0A6E0B1E086
:1000E00001C01D92A03EB107E1F710E0C8EBD0E0DF
:1000F00004C02297FE010E94E606C43BD107C9F75F
:100100000E94D7010C94EA060C940000FC01728353
:1001100061830895FC011286108214821382168274
:10012000158281E081870895FC0112821182678324
:100130001086E55BFF4F80E481938FE38083EC546E
:10014000F040CF010E948A0008956A3021F06D309E
:1001500011F0662309F460E20E94940008956A3069
:1001600021F06D3011F0662309F460E20E949400E2
:10017000089560E20E949400089560E20E94940055
:100180000895CF93DF93EC0118821616170654F5E5
:100190006A30710539F16D30710521F06115710515
:1001A00009F10FC08A85FE01E80FF11D1386CE010B
:1001B0000E948A0081E08883CE010B969C838B830A
:1001C00011C08A85FE01E80FF11D63878F5F8A8762
:1001D000C45BDF4F9881CC54D040891718F0CE0112
:1001E0000E948A008881813029F4E981FA81309760
:1001F00009F0099588819927DF91CF910895CF93D0
:10020000DF93EC018881882301F1813019F020E02F
:1002100030E005C09E01255F3F4F82E088838985DD
:10022000882359F0AE014B5F5F4FBE01695F7F4F7E
:10023000C9010E9446069C838B838B819C81892BFC
:1002400021F0198681E090E002C080E090E0DF912B
:10025000CF9108950E94FF0099270895CF93DF93CF
:10026000EC010E94FF00882319F480E090E008C0B0
:1002700081E08987EB81FC818081992787FD9095BA
:10028000DF91CF910895CF93DF93EC010E94FF009F
:10029000882319F480E090E006C081E089878B8193
:1002A0009C810E942806DF91CF910895019739F42F
:1002B0006F5F7F4F21F486E091E00E94B9000895BE
:1002C0006FEF7FEF81E090E00E94560108950F9359
:1002D0001F93CF93DF9307E511E0C6E0D1E018C08C
:1002E000C8010E94A502BC01CE010E94C100882362
:1002F00079F0CE010E944301AA2797FDA095BA2F5D
:100300008093000190930101A0930201B093030137
:10031000C8010E94A802882319F70E94D8022091E0
:100320005301309154014091550150915601621B87
:10033000730B840B950B20910001309101014091CA
:10034000020150910301261737074807590708F59E
:100350000E94D80260935301709354018093550119
:1003600090935601C0E0D0E007E511E08C2F0E9489
:100370006403BC01C8010E94800260E2C8010E94BF
:10038000FA012196C630D10589F787E591E00E94F0
:10039000FE01DF91CF911F910F91089540E052EC43
:1003A00061E070E087E591E00E94AC020895CFEF34
:1003B000D4E0DEBFCDBF0E941F030E94CE010E9489
:1003C0006701FDCF08950895CB01BA013327442773
:1003D00055270E94960408952AE00E94E40108959A
:1003E000AB01662777270E94EC010895862F0E94B3
:1003F0008E040895862F0E948E0408950F931F93F4
:100400008C016DE00E94FA016AE0C8010E94FA01C5
:100410001F910F9108950F931F938C010E94EC017F
:10042000C8010E94FE011F910F9108950F931F9321
:100430008C010E94F001C8010E94FE011F910F91E2
:1004400008950F931F938C010E94F601C8010E942A
:10045000FE011F910F9108950F931F938C010E942D
:10046000FA01C8010E94FE011F910F910895EF92B9
:10047000FF920F931F93CF93DF93EC017A018B01CF
:1004800077FF0BC06DE20E94FA0110950095F09481
:10049000E094E11CF11C011D111D2AE0B801A70127
:1004A000CE010E94E401DF91CF911F910F91FF9047
:1004B000EF9008950F931F938C010E943702C8019B
:1004C0000E94FE011F910F9108952115310521F41D
:1004D000642F0E94FA0108952A30310519F40E9410
:1004E000370208950E94E40108950F931F938C0131
:1004F0000E946502C8010E94FE011F910F9108959C
:10050000AB01662757FD6095762F0E94370208954C
:100510000F931F938C010E948002C8010E94FE016C
:100520001F910F910895CB010E94660508950F93C6
:100530001F938C010E949302C8010E94FE011F912B
:100540000F9108950E94470408950E942804089579
:100550000E94170499270895CB01BA010E94D6037F
:100560000895089508951F920F920FB60F921124C7
:100570008F939F93AF93BF9380915C0190915D01A6
:10058000A0915E01B0915F010196A11DB11D809304
:100590005C0190935D01A0935E01B0935F01BF91F8
:1005A000AF919F918F910F900FBE0F901F90189554
:1005B00060915C0170915D0180915E0190915F019D
:1005C00027E0660F771F881F991F2A95D1F72DE71F
:1005D00030E040E050E00E949306CA01B90108955E
:1005E000AF92BF92CF92DF92EF92FF920F931F9341
:1005F0005B016C010E94D8027B018C010E94D80231
:100600006E197F09800B910B6A157B058C059D0582
:10061000A8F31F910F91FF90EF90DF90CF90BF90C4
:10062000AF900895019751F0880F991F880F991F77
:1006300002972FB7F8940197F1F72FBF0895789498
:1006400010925C0110925D0110925E0110925F01A8
:1006500084B5826084BD84B5816084BD85B58260C7
:1006600085BD85B5816085BDEEE6F0E08081816065
:100670008083E1E8F0E08081826080838081816016
:100680008083E0E8F0E0808181608083E1EBF0E04E
:10069000808184608083E0EBF0E0808181608083F2
:1006A000EAE7F0E0808184608083808182608083DB
:1006B0008081816080838081806880831092C10006
:1006C00008958093040108958F709091040192958C
:1006D000990F990F907C982B90937C0080917A00D1
:1006E000806480937A0080917A0086FDFCCF20910F
:1006F0007800809179009927982F88273327822BBB
:10070000932B08951F93CF93DF93182FEB0161E094
:100710000E947305E12FFF27E156FF4F849183303C
:1007200051F480918000806880938000D09389008C
:10073000C093880037C0843051F48091800080627B
:1007400080938000D0938B00C0938A002BC08130AF
:1007500029F484B5806884BDC7BD24C0823029F4E3
:1007600084B5806284BDC8BD1DC0863041F48091CF
:10077000B00080688093B000C093B30013C087308E
:1007800041F48091B00080628093B000C093B400C7
:1007900009C0C038D10514F460E001C061E0812FC8
:1007A0000E94DD05DF91CF911F910895EF92FF9296
:1007B0000F931F937B018C0122E030E040E050E07A
:1007C0000E94B506205C3D4B404F5F4FCA01B90106
:1007D000A80197010E94B50621503040404050408A
:1007E000BB2757FDBA95A52F942F832F2F5F3F4F1F
:1007F0004F4F5F4F8093C50021502093C400E1EC20
:10080000F0E0808180618083808188608083808146
:10081000806880831F910F91FF90EF900895982F2B
:100820008091C00085FFFCCF9093C6000895809111
:1008300058019091590180589F4F20915A01309151
:100840005B01821B930B60E870E00E9480060895B4
:1008500040915A0150915B0180915801909159014A
:100860008417950719F48FEF9FEF0895FA01E05A66
:10087000FE4F2081CA01019660E870E00E94800668
:1008800090935B0180935A01822F9927089580915C
:100890005A0190915B0190935901809358010895FA
:1008A0001F920F920FB60F9211242F933F934F93E5
:1008B0005F936F937F938F939F93AF93BF93EF93C8
:1008C000FF934091C600E0915801F0915901CF018A
:1008D000019660E870E00E9480069C0180915A01B8
:1008E00090915B012817390739F0E05AFE4F408399
:1008F0003093590120935801FF91EF91BF91AF912F
:100900009F918F917F916F915F914F913F912F9127
:100910000F900FBE0F901F9018950895982F8091FB
:10092000C00085FFFCCF9093C60008952F923F92A0
:100930004F925F926F927F928F929F92AF92BF92EF
:10094000CF92DF92EF92FF920F931F93CF93DF939B
:10095000CDB7DEB7A0970FB6F894DEBF0FBECDBF00
:100960006B017C0129013A01611571058105910531
:1009700041F48091C00085FFFCCF80E38093C600E6
:100980004BC08824992454011E010894211C311C59
:100990008101080D191DC701B601A30192010E9432
:1009A0009306F80160830894811C911CA11CB11C62
:1009B000C701B601A30192010E94930669017A0161
:1009C000211531054105510519F708948108910851
:1009D000A108B108F101E80DF91D0894811C911CD2
:1009E000A11CB11C14C0089481089108A108B10889
:1009F00080818A3018F4982F905D02C0982F995CFE
:100A00008091C00085FFFCCF9093C6003197811480
:100A10009104A104B10439F7A0960FB6F894DEBF93
:100A20000FBECDBFDF91CF911F910F91FF90EF903F
:100A3000DF90CF90BF90AF909F908F907F906F90FE
:100A40005F904F903F902F90089520E130E040E07C
:100A500050E00E949604089528E030E040E050E025
:100A60000E949604089522E030E040E050E00E94A9
:100A7000960408958091C00085FFFCCF8AE08093A2
:100A8000C6000895EF92FF920F931F937B018C0194
:100A900097FF0FC08091C00085FFFCCF8DE280934F
:100AA000C60010950095F094E094E11CF11C011D26
:100AB000111D2AE030E040E050E0C801B7010E947B
:100AC00096041F910F91FF90EF900895FC0107C0CD
:100AD0008091C00085FFFCCF31969093C600908135
:100AE0009923B1F70895282F3327C90185579F4FC0
:100AF000FC01949129583F4FF9018491882381F09A
:100B0000E82FFF27E859FF4FE491FF27662329F4D8
:100B1000808190958923808308958081892B8083AB
:100B20000895482F5527CA0181569F4FFC012491F3
:100B3000CA0185579F4FFC01949149585F4FFA01B4
:100B40003491332319F480E090E00895222331F1A9
:100B5000233021F4809180008F7705C0243031F458
:100B6000809180008F7D8093800018C0213019F41F
:100B700084B58F7704C0223021F484B58F7D84BD85
:100B80000DC0263021F48091B0008F7705C027304A
:100B900029F48091B0008F7D8093B000E32FFF2770
:100BA000EE58FF4FE491FF27808120E030E0892359
:100BB00011F021E030E0C9010895482F5527CA01FE
:100BC00081569F4FFC012491CA0185579F4FFC011C
:100BD000949149585F4FFA0134913323C1F1222394
:100BE00031F1233021F4809180008F7705C02430CB
:100BF00031F4809180008F7D8093800018C0213077
:100C000019F484B58F7704C0223021F484B58F7D28
:100C100084BD0DC0263021F48091B0008F7705C0CF
:100C2000273029F48091B0008F7D8093B000E32FAE
:100C3000FF27E359FF4FE491FF27662329F48081C2
:100C400090958923808308958081892B80830895DE
:100C5000FC0188279927E89421912032E9F3293073
:100C600010F02E30C8F32B3241F02D3239F4689455
:100C700004C00E947806820F911D219120532A30D2
:100C8000C0F31EF4909581959F4F0895009731F41D
:100C9000DA018D919C91009709F40EC0DC01FB01F3
:100CA0003D912191222319F03217C9F3FACF332352
:100CB00031F4DA011D921C92882799270895119723
:100CC000AF93BF93FB013D912191321771F4332310
:100CD00021F488279927119702C01E921196FA01D4
:100CE000A193B0839F918F910895222369F7EACF52
:100CF0007AE0979F902D879F802D910D1124089564
:100D000097FB092E07260AD077FD04D049D006D0DC
:100D100000201AF4709561957F4F0895F6F790952D
:100D200081959F4F0895A1E21A2EAA1BBB1BFD01BE
:100D30000DC0AA1FBB1FEE1FFF1FA217B307E407BA
:100D4000F50720F0A21BB30BE40BF50B661F771F12
:100D5000881F991F1A9469F76095709580959095F2
:100D60009B01AC01BD01CF01089597FB092E05261B
:100D70000ED057FD04D0D7DF0AD0001C38F45095B0
:100D80004095309521953F4F4F4F5F4F0895F6F7AF
:100D900090958095709561957F4F8F4F9F4F0895E7
:100DA000AA1BBB1B51E107C0AA1FBB1FA617B70791
:100DB00010F0A61BB70B881F991F5A95A9F78095AD
:100DC0009095BC01CD010895EE0FFF1F0590F491A1
:060DD000E02D0994FFCFA5
:060DD600320000000100E4
:00000001FF
